:100000000C9434000C944F000C944F000C944F004F
:100010000C944F000C944F000C944F000C944F0024
:100020000C944F000C944F000C944F000C9422033E
:100030000C944F000C944F000C944F000C944F0004
:100040000C944F000C944F000C94FA020C944F0047
:100050000C944F000C944F000C944F000C944F00E4
:100060000C944F000C944F0011241FBECFEFD4E02E
:10007000DEBFCDBF11E0A0E0B1E0E0E1F8E002C0FA
:1000800005900D92A430B107D9F711E0A4E0B1E0DA
:1000900001C01D92A937B107E1F70C9437020C9407
:1000A0000000F89480E184B98FEC85B917B88FEF20
:1000B00088B986EE8AB98DE78BB9109280008CE002
:1000C0008093810087E490E090938900809388007A
:1000D00082E080936F0083E190E09093C50080936D
:1000E000C40088E98093C10086E08093C2008091BB
:1000F00064008E7F8093640080917A00876880938B
:100100007A0080917C00806480937C0078940895CC
:10011000982F8091C00085FFFCCF9093C600089572
:100120008CE80E94880080E00E94880084E00E94A1
:1001300088008CE30E94880086E00E94880088E4A2
:100140000E94880086E00E94880084E50E94880062
:1001500086E00E94880080E60E94880086E00E9477
:1001600088008CE80E94880081E00E94880086E078
:100170000E94880085E40E94880082E10E94880035
:1001800088E40E9488008CE00E9488008AE40E9433
:1001900088008CE00E94880088E40E9488008CE03F
:1001A0000E94880085E40E9488008CE00E948800FC
:1001B0008DE40E94880088E10E9488008CE80E94FB
:1001C000880082E00E94880082E00E9488008AE421
:1001D0000E9488008CE00E9488008BE30E948800C7
:1001E00088E10E9488008CE80E94880083E00E94D9
:1001F000880085E00E9488008DE40E94880082E1EA
:100200000E9488008AE40E9488008CE00E94880096
:1002100088E40E9488008CE00E94880085E40E94A7
:1002200088008CE00E94880081E40E94880088E1B8
:100230000E9488000895EF92FF920F931F938C0104
:100240007B0189E80E948800812F992787FD9A9574
:100250000E948800802F0E9488008F2D992787FD9B
:100260009A950E9488008E2D0E9488001F910F9100
:10027000FF90EF90089521E020930E0190931001DC
:1002800080930F0180910E01882309F442C0809170
:100290000D018823B9F7A1E1B1E0E5E4F1E093E3D2
:1002A0008D918193915097FFFBCF809151019927B8
:1002B000382F2227809152019927282B392B8091A2
:1002C0000A0190910B01820F931F90930B01809371
:1002D0000A01809153019927382F222780915401D8
:1002E0009927282B392B8091080190910901820FC1
:1002F000931F90930901809308018EE80E94880063
:1003000086E00E94880010920C0181E080930D012C
:10031000B9CF08959C0181E080930E0130931001C4
:1003200020930F0180910E018823E1F70895CF9368
:10033000C82F8C3008F054C081E80E94880080915A
:10034000C00080648093C0008C2F0E948800809140
:10035000C00086FFFCCFF894CB3019F489E090E020
:1003600036C0CA3019F483E190E031C0C93019F4C5
:100370008DE190E02CC0C83019F487E290E027C0EE
:10038000C73019F48BE390E022C0C63019F48FE433
:1003900090E01DC0C53019F487E790E018C0C43064
:1003A00019F48FEE90E013C0C33019F48FED91E093
:1003B0000EC0C23019F48FEB93E009C0C13019F4BC
:1003C0008FE797E004C0CC2331F48FEF9EE0909349
:1003D000C5008093C400789484E690E00E948A016E
:1003E000CF9108951D9913C01D990DC05F9884EF9A
:1003F00091E00E948A015F9A84E690E00E948A015F
:100400005F981D9BF3CF8CEA9DE00E948A010895BE
:1004100080917C00866080937C0080917A0080646B
:1004200080937A0080917A0086FDFCCF80917800DD
:100430009091790090930701809306015D985E98F2
:1004400080917C00876080937C0080917A0080643A
:1004500080937A0080917A0086FDFCCF80917800AD
:100460009091790090930501809304010895CFEF56
:10047000D4E0DEBFCDBF0E9451008BB180668BB946
:100480000E94F20180E80E9488008AE00E949701A1
:100490000E94900082E80E94880084E80E94880000
:1004A00060E070E880E090E00E941B018DE80E940F
:1004B000880080E00E9488008EEE92E00E943B015E
:1004C0008BE80E9488008AE00E94880080E80E94F1
:1004D00088008FEF0E9488008BB180668BB988EE10
:1004E00093E00E948A010E9408028CE80E94880022
:1004F00084E00E94880081E00E94880080910601CB
:100500009091070173E0959587957A95E1F70E94A0
:10051000880080E40E9488008DE80E94880084E0C2
:100520000E9488008CED95E00E948A018CE80E9470
:10053000880086E00E94880081E00E94880080E4B4
:100540000E94880080E40E9488008DE80E94880054
:1005500086E00E9488008CED95E00E948A0120913F
:100560000601309107018091040190910501281B3B
:10057000390B37FF03C0309521953F4F35952795AF
:1005800035952795232B89F58CE80E94880085E016
:100590000E94880082E00E9488008091060190916C
:1005A000070153E0959587955A95E1F70E948800D9
:1005B00080E40E948800809106019091070143E049
:1005C000959587954A95E1F70E94880080E10E9401
:1005D00088008DE80E94880085E00E94880080EDF8
:1005E00097E00E948A015D985E9A88EE93E00E94EF
:1005F0008A0172CF1F920F920FB60F9211248F9320
:100600009F93EF93FF939091C60080910D018823F3
:1006100081F080910C01E82FFF27EF5EFE4F908361
:100620008F5F80930C0180910C01843310F0109245
:100630000D01FF91EF919F918F910F900FBE0F9041
:100640001F9018951F920F920FB60F9211248F933F
:100650009F9380910F0190911001892B51F080910F
:100660000F019091100101979093100180930F0159
:1006700002C010920E019F918F910F900FBE0F90AC
:100680001F9018950E94B303DC01CB0190709695E2
:100690008795C5960895AF92BF92CF92DF92EF9261
:1006A000FF920F931F93CF93DF93EC01E880F980C3
:1006B0000A811B81C801B7012DE133EF41E050E011
:1006C0000E94E60359016A01C801B7012DE133EF29
:1006D00041E050E00E94E603DC01CB01BC01CD010A
:1006E00027EA31E440E050E00E94C7037B018C011F
:1006F000C601B50124E13BE040E050E00E94C703A1
:10070000DC01CB01E81AF90A0A0B1B0B1E141F04AB
:100710001006110644F08FEF9FEFAFEFBFE7E80E32
:10072000F91E0A1F1B1FE882F9820A831B838FEFC1
:100730009FEFAFEFBFE7E822F9220A231B23C8018E
:10074000B701DF91CF911F910F91FF90EF90DF9054
:10075000CF90BF90AF9008950E944B03DC01CB0176
:10076000BC01CD01089580E091E00E944B03DC01C3
:10077000CB01BC01CD010895DC01CB0180930001C8
:1007800090930101A0930201B09303010895629F29
:10079000D001739FF001829FE00DF11D649FE00D79
:1007A000F11D929FF00D839FF00D749FF00D659FDA
:1007B000F00D9927729FB00DE11DF91F639FB00DD9
:1007C000E11DF91FBD01CF0111240895A1E21A2EE8
:1007D000AA1BBB1BFD010DC0AA1FBB1FEE1FFF1FE5
:1007E000A217B307E407F50720F0A21BB30BE40B35
:1007F000F50B661F771F881F991F1A9469F760957C
:100800007095809590959B01AC01BD01CF01089535
:0408100001000000E3
:00000001FF
