:100000000C9434000C944F000C944F000C944F004F
:100010000C944F000C944F000C944F000C94DC0790
:100020000C944F000C944F000C944F000C94D50688
:100030000C944F000C944F000C944F000C944F0004
:100040000C944F000C944F000C94AB060C944F0092
:100050000C944F000C944F000C944F000C944F00E4
:100060000C944F000C944F0011241FBECFEFD4E02E
:10007000DEBFCDBF11E0A0E0B1E0E6EBF9E102C0E8
:1000800005900D92A633B107D9F711E0A6E3B1E0D0
:1000900001C01D92AD3EB107E1F70C94C4020C946F
:1000A0000000F89480E184B98FEC85B917B88FEF20
:1000B00088B986EE8AB98DE78BB9109280008CE002
:1000C0008093810087E490E090938900809388007A
:1000D00082E080936F0083E190E09093C50080936D
:1000E000C40088E98093C10086E08093C2008091BB
:1000F00064008E7F8093640080917A00876880938B
:100100007A0080917C00806680937C0078940895CA
:10011000982F8091C00085FFFCCF9093C600089572
:100120008CE80E94880080E00E94880084E00E94A1
:1001300088008CE30E94880086E00E94880088E4A2
:100140000E94880086E00E94880084E50E94880062
:1001500086E00E94880080E60E94880086E00E9477
:1001600088008CE80E94880081E00E94880086E078
:100170000E94880085E40E94880082E10E94880035
:1001800088E40E9488008CE00E9488008AE40E9433
:1001900088008CE00E94880088E40E9488008CE03F
:1001A0000E94880085E40E9488008CE00E948800FC
:1001B0008DE40E94880088E10E9488008CE80E94FB
:1001C000880082E00E94880082E00E9488008AE421
:1001D0000E9488008CE00E9488008BE30E948800C7
:1001E00088E10E9488008CE80E94880083E00E94D9
:1001F000880085E00E9488008DE40E94880082E1EA
:100200000E9488008AE40E9488008CE00E94880096
:1002100088E40E9488008CE00E94880085E40E94A7
:1002200088008CE00E94880081E40E94880088E1B8
:100230000E9488000895EF92FF920F931F938C0104
:100240007B0189E80E948800812F992787FD9A9574
:100250000E948800802F0E9488008F2D992787FD9B
:100260009A950E9488008E2D0E9488001F910F9100
:10027000FF90EF90089521E0209344019093460170
:100280008093450180914401882309F442C0809104
:1002900043018823B9F7A5E8B1E0E9EBF1E093E386
:1002A0008D918193915097FFFBCF8091C501992744
:1002B000382F22278091C6019927282B392B80912E
:1002C000400190914101820F931F909341018093CF
:1002D00040018091C7019927382F22278091C801BA
:1002E0009927282B392B80913E0190913F01820F55
:1002F000931F90933F0180933E018EE80E948800F7
:1003000086E00E9488001092420181E080934301C0
:10031000B9CF08959C0181E0809344013093460158
:1003200020934501809144018823E1F70895CF93FC
:10033000C82F8C3008F054C081E80E94880080915A
:10034000C00080648093C0008C2F0E948800809140
:10035000C00086FFFCCFF894CB3019F489E090E020
:1003600036C0CA3019F483E190E031C0C93019F4C5
:100370008DE190E02CC0C83019F487E290E027C0EE
:10038000C73019F48BE390E022C0C63019F48FE433
:1003900090E01DC0C53019F487E790E018C0C43064
:1003A00019F48FEE90E013C0C33019F48FED91E093
:1003B0000EC0C23019F48FEB93E009C0C13019F4BC
:1003C0008FE797E004C0CC2331F48FEF9EE0909349
:1003D000C5008093C400789484E690E00E948A016E
:1003E000CF9108951D9913C01D990DC05F9884EF9A
:1003F00091E00E948A015F9A84E690E00E948A015F
:100400005F981D9BF3CF8CEA9DE00E948A010895BE
:1004100080917C00887F80937C0080917C00866046
:1004200080937C0080917A00806480937A00809130
:100430007A0086FDFCCF8091790080933D015D9824
:100440005E9880917C00876080937C0080917A0028
:10045000806480937A0080917A0086FDFCCF809141
:10046000790080933C0108951F93CF93DF93CDB71C
:10047000DEB7C054D0400FB6F894DEBF0FBECDBF7C
:1004800086E7809338011092470111E00E9408022C
:1004900080913D01882384F01FEF0EC0612F7727E4
:1004A00067FD709586E990E00E941B0184E690E06C
:1004B0000E948A010E94080280913C01282F332764
:1004C00080913801281B310937FF03C030952195F1
:1004D0003F4F809147019927029682179307F4F2C4
:1004E0000E94080280913D0187FF02C011E001C017
:1004F0001FEF60E070E880E090E00E941B0188EE52
:1005000093E014C0612F772767FD709586E490E033
:100510000E941B0184E690E00E948A0160E070E87E
:1005200080E090E00E941B018CE291E00E948A0131
:100530000E94080280913C01282F332780913801C6
:10054000281B310937FF03C0309521953F4F80911B
:100550004701992782179307ACF280913D019927B3
:100560008E57904097FF03C0909581959F4F0397BA
:100570004CF6C05CDF4F0FB6F894DEBF0FBECDBFA8
:10058000DF91CF911F910895CEEDD4E0DEBFCDBFB6
:10059000E3E69E2E00E071E0372EEE24FF24D32CFC
:1005A000502E202E432C802EB02EA02EC02E102F89
:1005B00009A30E94510063E1832D0E9404078BB1BF
:1005C00080668BB90E94F20180E80E94880088E072
:1005D0000E9497010E94900082E80E94880084E8AF
:1005E0000E94880060E070E8C7010E941B018DE84E
:1005F0000E948800802F0E9488008EEE92E00E9468
:100600003B010E94D9073E010894611C711C80E1E6
:10061000E0E0F1E0D30101900D928A95E1F7C3018A
:100620000E94850780EA96E8A1E0B0E0C297A109A0
:10063000B109E1F788EE93E00E948A010E94080266
:100640000E94D90780913C0199279F938F938091B5
:100650003D0199279F938F9320E131E03F932F93A2
:100660007F926F920E946109C3010E94850780EA10
:1006700096E8A1E0B0E02DB73EB7285F3F4F0FB638
:10068000F8943EBF0FBE2DBFC297A109B109E1F793
:10069000939433E6391588F59924892D332009F48C
:1006A00081E0382E8823D1F08BE80E9488008AE010
:1006B0000E94880080E80E9488008FEF0E948800D6
:1006C0008BB1806619C060E070E884E690E00E941B
:1006D0001B0184E690E00E948A019BC28BE80E9485
:1006E0008800892D0E948800892D0E948800892D0C
:1006F0000E9488008BB18F798BB98AE090E00E94CC
:100700003B014C99C5CF8DE80E94880081E00E9492
:1007100088008DEF9AE00E943B010E9408020E942F
:10072000D90780913C0199279F938F9380913D0138
:1007300099279F938F9380E191E09F938F937F926E
:100740006F920E946109C3010E94850780EA96E8C2
:10075000A1E0B0E02DB73EB7285F3F4F0FB6F89449
:100760003EBF0FBE2DBFC297A109B109E1F780912D
:100770003D0199278F57904097FF03C09095819531
:100780009F4F059764F480913C0199278F579040C3
:1007900097FF03C0909581959F4F059774F00E9435
:1007A000340231E039A360E070E880E090E00E941C
:1007B0001B0184E690E00E948A0184E190E00E949F
:1007C0008A0160E070E880E090E00E941B0184E113
:1007D00090E00E948A010E94080214C28091B9012F
:1007E00099278C719070892B09F013C2552081F1E3
:1007F000222099F08091400190914101909581953E
:100800009F4F0B972CF0222410924101109240012F
:1008100060E070E888E39FEF6AC1DD2059F08091C5
:100820003E0190913F01E816F9060CF4522C61E06C
:1008300070E05BC180913E0190913F019095819560
:100840009F4FE816F9060CF45D2C6FEF7FEF4DC15A
:100850008091B901282F332723703070211531057D
:1008600089F48091BB01882369F48091BC018823BD
:1008700049F48091BD01882329F48091BE01882329
:1008800009F4F5C060E070E880E090E00E941B0190
:1008900061E0D62E50E5E52EF12C112391F58091E3
:1008A000B901992783709070892B41F48091BC0124
:1008B000882321F48091BD01882319F041E0842E22
:1008C0000AC08091BB01882311F0AD2C0BC0809130
:1008D000BE018111BD2CAA2029F48091BC0188237E
:1008E00009F4B1C0BB2031F48091BD01882311F41B
:1008F000DB2C9EC0CC2009F08CC13AEAE32EF12C0F
:100900006CC01230B1F58091B90199278370907055
:10091000892B41F48091BC01882321F48091BD0191
:10092000882319F021E0A22E0CC08091BB018823FE
:1009300011F0CD2C06C08091BE01882311F08D2CC2
:1009400009C0882039F48091BD01882319F4182D3D
:10095000D82C7AC0BB2021F49AEAE92EF12C68C089
:10096000CC2009F056C18091BC01882309F051C107
:1009700034C01330A1F5BD2C8091B9019927837043
:100980009070892B41F48091BC01882321F48091DF
:10099000BD01882319F081E0B82E0AC08091BB0107
:1009A000882311F08D2C0AC08091BE018111CD2CBD
:1009B000882021F48091BC01882391F1AA2021F4A0
:1009C000BAEAEB2EF12C3FC0CC2009F022C1809175
:1009D000BD01882309F01DC1DC2C11E035C08091D8
:1009E000B901992783709070892B41F48091BC01E3
:1009F000882321F48091BD01882319F0A1E0CA2E3B
:100A00000AC08091BB01882311F0BD2C04C08091E5
:100A1000BE018111AD2C882029F4FAEAEF2EF12CC9
:100A2000182D12C0BB2031F48091BB01882311F432
:100A300013E00AC0AA2009F0ECC08091BE0188230F
:100A400009F0E7C0DA2C12E0E1E05E2E252C1092CE
:100A500041011092400110923F0110923E01442446
:100A60008DE80E94880082E00E9488006DC0C90164
:100A7000442011F481E090E080FF3CC0809140016F
:100A800090914101893C910574F130933F0120938D
:100A90003E01309341012093400170E5E72EF12C97
:100AA000123041F4C52C852C152DD52C61E0562E25
:100AB000452C4AC0133041F4C52C852C51E0D52E6D
:100AC000152D4D2C5D2C40C0113009F03DC0AA20E1
:100AD00019F0D12E13E002C0D52C12E0AA24BA2CB2
:100AE00041E0542E31C060E070E888EC90E00E9454
:100AF0001B012AC089A18823F9F084E690E00E94B6
:100B00008A010E94080280913D0199278F579040E9
:100B100097FF03C0909581959F4F02976CF4809149
:100B20003C0199278F57904097FF03C0909581957E
:100B30009F4F02970CF4C7CD60E070E888EC90E01E
:100B40000E941B01AA24BA2C939499E0991508F0ED
:100B500055C09924552031F0002311F404E040C021
:100B6000015005C0043011F4052D03C00F5F0023B0
:100B700059F48BE80E948800802F0E94880080E84A
:100B80000E9488008FEF13C0013029F48BE80E9487
:100B9000880082E006C0023081F48BE80E94880061
:100BA00088E00E94880080E00E94880080E00E9427
:100BB00088008BB180668BB921C0033079F48BE853
:100BC0000E94880080E00E94880080E00E948800E7
:100BD00080E00E9488005E985D9A10C0043071F435
:100BE0008BE80E94880080E00E94880080E00E94DC
:100BF000880080E00E9488005D985E9A84E190E021
:100C00000E943B014C9B05C08091E001882309F4C0
:100C1000E5CD60E070E880E090E00E941B0184EF89
:100C200091E00E943B018DE80E94880083E00E94D1
:100C3000880086E899E00E943B012ACD0F931F931C
:100C4000CF93DF93CDB7DEB7A0970FB6F894DEBF92
:100C50000FBECDBF01E00E94080280913D018823B4
:100C6000D4F00FEF18C0602F772767FD709586E4EA
:100C700090E00E941B0188EC90E00E948A0160E0F5
:100C800070E880E090E00E941B0184E690E00E9402
:100C90008A010E94080280913C01282F332780910D
:100CA0003801281B31092F5F3F4F37FF03C03095B4
:100CB00021953F4F24303105B4F680913D019927AD
:100CC0008F57904097FF03C0909581959F4F039752
:100CD00054F660E070E880E090E00E941B0184E13F
:100CE00090E00E948A010E9408020E94D907809128
:100CF0003C0199279F938F9380913D0199279F9362
:100D00008F938FE191E09F938F938E010F5F1F4F21
:100D10001F930F930E946109C8010E94850780EA12
:100D200096E8A1E0B0E02DB73EB7285F3F4F0FB681
:100D3000F8943EBF0FBE2DBFC297A109B109E1F7DC
:100D4000A0960FB6F894DEBF0FBECDBFDF91CF9156
:100D50001F910F9108951F920F920FB60F921124B9
:100D60008F939F93EF93FF93F8949091C600809197
:100D70004301882381F080914201E82FFF27EB5740
:100D8000FE4F90838F5F80934201809142018433B4
:100D900010F0109243017894FF91EF919F918F9101
:100DA0000F900FBE0F901F9018951F920F920FB6C5
:100DB0000F9211248F939F93F89480914501909105
:100DC0004601892B51F08091450190914601019790
:100DD000909346018093450102C01092440178949B
:100DE0009F918F910F900FBE0F901F9018950E94AA
:100DF0004D09DC01CB01907096958795C5960895B5
:100E000081E08093310108951F93162FF894809309
:100E1000510110924801E0915301F0915401108268
:100E20001092490181E08093300110924A011092A2
:100E30004B010E9400078091510141E050E09A016E
:100E400002C0220F331F8A95E2F784B1822B84B946
:100E5000809151019A0102C0220F331F8A95E2F757
:100E600085B1822B85B9809151019A0102C0220F70
:100E7000331F8A95E2F79FE3922780917E008923B2
:100E800080937E00809151019A0102C0220F331F8E
:100E90008A95E2F7922F909587B1892387B980913F
:100EA000510102C0440F551F8A95E2F788B1842B87
:100EB00088B992E09093B0001093B3001150109352
:100EC000B20083E08093B1009093700078941F91FA
:100ED000089520E030E080914901882311F021E05D
:100EE00030E0C9010895CF93C82F789401C0000065
:100EF0000E9469078823D9F7F894C093520181E0D2
:100F0000809349017894CF9108951F93CF93DF93F5
:100F1000EC0110E0789401C000000E94690788236A
:100F2000D9F79E012F5F3F4F309354012093530117
:100F30008981882331F01F5FF901E10FF11D808164
:100F4000F8CFF8941093480188818093520181E092
:100F5000809349017894DF91CF911F9108959091EA
:100F60004A0180914B01981738F080914A01909185
:100F70004B01891B9927089580914B0190914A015B
:100F8000891B90E3981B892F9927089580914B0125
:100F9000E82FFF27EB5AFE4F8F5F80934B01E081D4
:100FA00080914B01803310F010924B018E2F9927C6
:100FB00008951092310108951F920F920FB60F926B
:100FC00011242F933F938F939F93EF93FF938091DF
:100FD0004D018F5F80934D0180914D01833010F062
:100FE00010924D0180913101882309F45FC0309146
:100FF0004E013323D1F190914D0180914F0198170B
:1010000009F056C08091500186958093500186B1B9
:1010100099272091510102C0959587952A95E2F76D
:1010200080FF05C0809150018068809350018091BD
:101030004E018F5F80934E0180914E018A30C4F142
:1010400010924E0190914A01E92FFF27EB5AFE4F73
:101050008091500180839F5F90934A0180914A0163
:10106000803330F110924A0123C086B19927209134
:10107000510102C0959587952A95E2F780FD18C029
:1010800080914D018F5F80934F0180914F018F5F61
:1010900080934F0180914F01833010F030934F01C6
:1010A00081E080934E013093500102C080934E0145
:1010B00080914D01882309F07DC080914901282F3E
:1010C000332722303105E9F02330310524F4213073
:1010D000310531F06FC02330310509F43EC06AC0DC
:1010E0008091510102C0220F331F8A95E2F7922F9F
:1010F000909585B1892385B982E08093490181E08B
:1011000029C08091520190913001892361F0809132
:10111000510121E030E002C0220F331F8A95E2F72F
:1011200085B1822B0DC02091510181E090E002C079
:10113000880F991F2A95E2F7982F909585B18923FA
:1011400085B98091300187FF02C083E031C0809172
:101150003001880F809330012DC08091510121E032
:1011600030E002C0220F331F8A95E2F785B1822B4F
:1011700085B991E090933001809148018823B1F0C6
:1011800080914C01E0915301F0915401E80FF11D61
:10119000890F80934C018081809352019093490183
:1011A0008091480181508093480104C080934C0194
:1011B00080934901FF91EF919F918F913F912F91E2
:1011C0000F900FBE0F901F901895AF92BF92CF92C5
:1011D000DF92EF92FF920F931F93CF93DF93EC0177
:1011E000E880F9800A811B81C801B7012DE133EF46
:1011F00041E050E00E94B90C59016A01C801B701F1
:101200002DE133EF41E050E00E94B90CDC01CB014D
:10121000BC01CD0127EA31E440E050E00E949A0C85
:101220007B018C01C601B50124E13BE040E050E0C8
:101230000E949A0CDC01CB01E81AF90A0A0B1B0B7D
:101240001E141F041006110644F08FEF9FEFAFEF3E
:10125000BFE7E80EF91E0A1F1B1FE882F9820A8306
:101260001B838FEF9FEFAFEFBFE7E822F9220A233E
:101270001B23C801B701DF91CF911F910F91FF9000
:10128000EF90DF90CF90BF90AF9008950E94E50857
:10129000DC01CB01BC01CD01089582E391E00E9405
:1012A000E508DC01CB01BC01CD010895DC01CB01D7
:1012B0008093320190933301A0933401B0933501B0
:1012C00008950F931F93CF93DF93CDB7DEB72E977B
:1012D0000FB6F894DEBF0FBECDBF0D891E892F89D2
:1012E000388D86E08C831A8309838FEF9FE79E8376
:1012F0008D83AE01475E5F4FB901CE0101960E941A
:101300009109EF81F885E00FF11F10822E960FB63C
:10131000F894DEBF0FBECDBFDF91CF911F910F912B
:1013200008952F923F924F925F926F927F928F9289
:101330009F92AF92BF92CF92DF92EF92FF920F9364
:101340001F93CF93DF93CDB7DEB762970FB6F894B4
:10135000DEBF0FBECDBFEE24FF2487011C017E87B8
:101360006D872A01CC24DD24FC01D782C6828381CB
:1013700081FD68C28FEF9FEF78C28D859E850196B3
:101380009E878D87C0FE4BC28F8580538A30D0F4F4
:101390009F85903339F4662029F4C3FC03C0E0E054
:1013A000F1E08DC08AE0689E602C1124FF856F0EED
:1013B00020ED620E67FE02C05FE7652EC3FC42C2ED
:1013C000762C40C2C3FE04C0662011F441E0642EB6
:1013D000EF858E2F992787FD9095883691058CF59E
:1013E000853691050CF06EC08335910509F493C0E4
:1013F00084359105CCF48B32910509F449C08C32C7
:1014000091054CF48032910509F446C08332910570
:1014100009F44AC0FEC18D32910509F440C08E32F4
:10142000910509F444C0F5C18336910509F450C013
:10143000843691050CF08AC08835910509F4BCC04A
:10144000E8C18037910509F4B1C08137910584F472
:101450008C36910591F18D3691052CF489369105E4
:1014600009F474C0D6C18F36910509F49CC0D1C16E
:101470008537910509F4A2C08637910524F4833796
:10148000910571F1C6C18837910509F495C0C1C1B4
:1014900080E190E0C82AD92AE0E2F0E010C080E8BC
:1014A00090E0C82AD92ACEC1E0E4F0E008C088E084
:1014B00090E0C82AD92A6624C5C1E4E0F0E0CE2A2B
:1014C000DF2AC0C13FE3E32E7A94F3E6FF873CC1F5
:1014D000F20182E090E0480E591EE0807A9434C117
:1014E000F20182E090E0480E591EA081B1817D0199
:1014F000C3FE09C0862D992787FD9095BC01CD01BB
:101500000E94620C1FC0FD0101900020E9F7319795
:10151000EA1BE88B18C0F20182E090E0480E591EE9
:101520000190F081E02D7F01C3FE09C0862D99272F
:1015300087FD9095BC01CF010E94570C03C0CF01DD
:101540000E944E0C888B9889791AFEC0C2FE0AC090
:10155000F20184E090E0480E591E208131814281E1
:1015600053810CC0F20182E090E0480E591E808148
:1015700091819C01442737FD4095542F79018A01C0
:1015800057FF0CC0E2E0F0E0CE2ADF2A109500956C
:10159000F094E094E11CF11C011D111D8FEB9FEFF5
:1015A000C822D92227C098E0988B08C0E0E4F0E078
:1015B000CE2ADF2AF8E7FF8720E1288BC2FE0AC087
:1015C000F20184E090E0480E591E20813181428171
:1015D00053810AC0F20182E090E0480E591E8081DA
:1015E00091819C014427552779018A01EFECFFEF97
:1015F000CE22DF22CE0101969A8B898B9889892E83
:101600009924AA24BB24C801B701A50194010E9412
:10161000B90CDC01CB01E989FA8980838A3024F096
:10162000FF858F0F815201C0805DE989FA8981931E
:10163000FA8BE98BC801B701A50194010E94B90C8E
:1016400079018A012115310541055105E1F6E98845
:1016500081E090E08C0F9D1FE81AC60182739070A4
:10166000892B09F07A94C6FE0DC0872D992787FD36
:101670009095E889E03121F42EEF722E780E02C0A9
:10168000782E7A94C3FE0FC0262D332727FD309580
:101690008E2D9927821793072CF087EF9FEFC82292
:1016A000D92201C06E18C3FE02C0761801C07E1890
:1016B000C60180789170892B51F4872D7A94181681
:1016C00034F4B10180E290E00E946D0CF6CFC1FECF
:1016D00004C0B1018DE290E00BC0C4FE04C0B101B2
:1016E0008BE290E005C0C5FE05C0B10180E290E04C
:1016F0000E946D0CC6FE10C0B10180E390E00E9414
:101700006D0C9889903141F4B101EF858E2F9927A6
:1017100087FD90950E946D0CD0FE0AC0872D7A94AB
:10172000181634F4B10180E390E00E946D0CF6CFFE
:10173000C3FE0AC0862D6A94181634F4B10180E302
:1017400090E00E946D0CF6CF90E8B92EBC2051F4C9
:10175000872D7A94181634F4B10180E290E00E944B
:101760006D0CF6CFFF85F33641F48E2DB10199272C
:1017700087FD90950E946D0C40C02F852337B1F4F2
:1017800088898150888B8F3FC1F1F701808108944F
:10179000E11CF11CB101992787FD90950E946D0C09
:1017A00098899150988B9F3F81F727C0EF85E3354B
:1017B00079F4F889F150F88BFF3FF9F0F701849143
:1017C000B10199270E946D0C0894E11CF11CF1CF26
:1017D0006E010894C11CD11C89899A898C159D05BC
:1017E00061F0E989FA898291FA8BE98BB101992735
:1017F00087FD90950E946D0CEFCFBB2069F0872D7F
:101800007A9418164CF4B10180E290E00E946D0CBD
:10181000F6CFB1010E946D0CCC24DD2413C09F854E
:10182000953241F481E0C82ED12C6624762CEAE072
:10183000E88B08C0B101FF858F2F992787FD909510
:101840000E946D0CF101838183FF04C0ED85FE854C
:10185000F49103C0ED85FE85F081FF872F8522235B
:1018600009F08BCDF1018681978162960FB6F894CD
:10187000DEBF0FBECDBFDF91CF911F910F91FF90C3
:10188000EF90DF90CF90BF90AF909F908F907F9020
:101890006F905F904F903F902F900895FC010590BE
:1018A0000020E9F7809590958E0F9F1F0895FC0109
:1018B0000590615070400110D8F7809590958E0F7B
:1018C0009F1F0895FC016150704001900110D8F7EE
:1018D000809590958E0F9F1F08950F931F93CF9320
:1018E000DF938C01EB018B81992781FF1CC082FF64
:1018F0000DC02E813F818C819D812817390764F4AA
:10190000E881F9810193F983E88306C0E885F985C8
:10191000802F0995892B39F48E819F8101969F83B1
:101920008E83C80102C08FEF9FEFDF91CF911F918F
:101930000F910895629FD001739FF001829FE00D87
:10194000F11D649FE00DF11D929FF00D839FF00D3E
:10195000749FF00D659FF00D9927729FB00DE11DEA
:10196000F91F639FB00DE11DF91FBD01CF011124C7
:101970000895A1E21A2EAA1BBB1BFD010DC0AA1FD0
:10198000BB1FEE1FFF1FA217B307E407F50720F0E8
:10199000A21BB30BE40BF50B661F771F881F991F63
:1019A0001A9469F760957095809590959B01AC01AC
:0619B000BD01CF01089506
:1019B60048656C6C6F20576F726C642121200A0099
:1019C60058203D2025642059203D2025640A0058D2
:1019D60031203D202564205931203D2025640A0010
:0619E600010101000000F8
:00000001FF
