:100000000C9434000C9451000C9451000C94510049
:100010000C9451000C9451000C9451000C9451001C
:100020000C9451000C9451000C9451000C947B00E2
:100030000C9451000C9451000C9451000C945100FC
:100040000C9451000C9451000C9453000C945100EA
:100050000C9451000C9451000C9451000C945100DC
:100060000C9451000C94510011241FBECFEFD4E02A
:10007000DEBFCDBF11E0A0E0B1E0E2E4F9E002C0F4
:1000800005900D92A430B107D9F711E0A4E0B1E0DA
:1000900001C01D92A737B107E1F70E94CD020C9471
:1000A000A0040C9400001F920F920FB60F9211241F
:1000B0008F939F93EF93FF939091C60080910701D8
:1000C000882381F080910801E82FF0E0E15FFE4F86
:1000D00090838F5F8093080180910801843310F032
:1000E00010920701FF91EF919F918F910F900FBE9A
:1000F0000F901F9018951F920F920FB60F92112418
:100100008F939F938091040190910501892B51F069
:1001100080910401909105010197909305018093CE
:10012000040102C0109206019F918F910F900FBEA3
:100130000F901F901895982F8091C00085FFFCCFDD
:100140009093C600089521E0209306019093050145
:1001500080930401809106018823E1F7089580913E
:100160007A0086FDFCCF80917A00806480937A00CB
:1001700080917A0086FDFCCF809178009091790083
:1001800090930E0180930D010895F89480E184B955
:100190008FEC85B917B88FEF88B986EE8AB98DE7ED
:1001A0008BB9109280008CE08093810087E490E00E
:1001B000909389008093880082E080936F0083E1B0
:1001C00090E09093C5008093C40088E98093C100BB
:1001D00086E08093C200E4E6F0E080818E7F808339
:1001E000EAE7F0E0808187688083ECE7F0E08081D7
:1001F00086648083789408950E94FF03DC01CB011C
:10020000907096958795C59608958091C00085FF5A
:10021000FCCF8CE88093C6008091C00085FFFCCFA6
:100220001092C6008091C00085FFFCCF84E08093CF
:10023000C6008091C00085FFFCCF8CE38093C60090
:100240008091C00085FFFCCF86E08093C60080913E
:10025000C00085FFFCCF88E48093C6008091C00079
:1002600085FFFCCF86E08093C6008091C00085FFAB
:10027000FCCF84E58093C6008091C00085FFFCCF51
:1002800086E08093C6008091C00085FFFCCF80E6A9
:100290008093C6008091C00085FFFCCF86E08093EC
:1002A000C6008091C00085FFFCCF8CE88093C6001B
:1002B0008091C00085FFFCCF81E08093C6008091D3
:1002C000C00085FFFCCF86E08093C6008091C0000F
:1002D00085FFFCCF85E48093C6008091C00085FF38
:1002E000FCCF82E18093C6008091C00085FFFCCFE7
:1002F00088E48093C6008091C00085FFFCCF8CE02D
:100300008093C6008091C00085FFFCCF8AE4809373
:10031000C6008091C00085FFFCCF8CE08093C600B2
:100320008091C00085FFFCCF88E48093C600809157
:10033000C00085FFFCCF8CE08093C6008091C00098
:1003400085FFFCCF85E48093C6008091C00085FFC7
:10035000FCCF8CE08093C6008091C00085FFFCCF6D
:100360008DE48093C6008091C00085FFFCCF88E1BA
:100370008093C6008091C00085FFFCCF8CE88093FD
:10038000C6008091C00085FFFCCF82E08093C6004C
:100390008091C00085FFFCCF82E08093C6008091F1
:1003A000C00085FFFCCF8AE48093C6008091C00026
:1003B00085FFFCCF8CE08093C6008091C00085FF54
:1003C000FCCF8BE38093C6008091C00085FFFCCFFB
:1003D00088E18093C6008091C00085FFFCCF8CE847
:1003E0008093C6008091C00085FFFCCF83E080939E
:1003F000C6008091C00085FFFCCF85E08093C600D9
:100400008091C00085FFFCCF8DE48093C600809171
:10041000C00085FFFCCF82E18093C6008091C000C0
:1004200085FFFCCF8AE48093C6008091C00085FFE1
:10043000FCCF8CE08093C6008091C00085FFFCCF8C
:1004400088E48093C6008091C00085FFFCCF8CE0DB
:100450008093C6008091C00085FFFCCF85E4809327
:10046000C6008091C00085FFFCCF8CE08093C60061
:100470008091C00085FFFCCF81E48093C60080910D
:10048000C00085FFFCCF88E18093C6000895AC01D1
:100490008091C00085FFFCCF89E88093C600252F9E
:1004A000332727FD3A958091C00085FFFCCF20932C
:1004B000C6008091C00085FFFCCF4093C600272F67
:1004C000332727FD3A958091C00085FFFCCF20930C
:1004D000C6008091C00085FFFCCF6093C6000895E0
:1004E00021E02093060190930501809304014FC001
:1004F00080910701882309F04AC020E030E0F9012B
:10050000E15FFE4F8081F901ED5BFE4F80832F5F3D
:100510003F4F2433310599F74091090150910A0169
:1005200080914F012091500190E0982F882730E072
:10053000822B932B840F951F90930A0180930901BE
:1005400040910B0150910C01809151012091520179
:1005500090E0982F882730E0822B932B840F951FF3
:1005600090930C0180930B018091C00085FFFCCF1C
:100570008EE88093C6008091C00085FFFCCF86E0A6
:100580008093C6001092080181E08093070180915A
:100590000601882309F0ACCF08950E94C5008BB1F5
:1005A00080668BB98BB180668BB981E08093060140
:1005B00088EE93E0909305018093040180910601F9
:1005C0008823E1F70E94AF0080910D0190910E0108
:1005D000855F91401CF05D985E9A0DC080910D0181
:1005E00090910E01885592401CF45D9A5E9803C06C
:1005F0008BB18F798BB981E08093060188EE93E00F
:100600009093050180930401809106018823E1F70E
:10061000C9CF982F8C3008F062C08091C00085FF50
:10062000FCCF81E88093C6008091C00080648093F5
:10063000C0008091C00085FFFCCF9093C6008091E0
:10064000C00086FFFCCFF8949B3019F489E090E05D
:1006500034C09A3019F483E190E02FC0993019F436
:100660008DE190E02AC0983019F487E290E025C02F
:10067000973019F48BE390E020C0963019F48FE4A2
:1006800090E01BC0953019F487E790E016C09430D5
:1006900019F48FEE90E011C0933019F48FED91E0D2
:1006A0000CC0923019F48FEB93E007C0913019F42D
:1006B0008FE797E002C08FEF9EE09093C500809394
:1006C000C400789481E08093060184E690E09093E2
:1006D000050180930401809106018823E1F70895C4
:1006E0001D9B1EC008955F9881E08093060184EFF2
:1006F00091E0909305018093040180910601882385
:10070000E1F75F9A81E08093060184E690E09093A0
:10071000050180930401809106018823E1F75F9829
:100720001D9BE1CF81E0809306018CEA9DE09093D0
:10073000050180930401809106018823E1F7089563
:10074000A0E0B0E0E6EAF3E00C944F04EC0168812D
:1007500079818A819B81611571058105910549F433
:1007600084E2A82E89EDB82E8BE5C82E87E0D82E1E
:1007700002C05B016C01C601B5012DE133EF41E020
:1007800050E00E942C0427EA31E440E050E00E944F
:100790000D047B018C01C601B5012DE133EF41E071
:1007A00050E00E942C04CA01B90124E13BE040E082
:1007B00050E00E940D04E61AF70A080B190B17FF08
:1007C00008C08FEF9FEFAFEFBFE7E80EF91E0A1FDB
:1007D0001B1FE882F9820A831B838FEF9FEFAFEF25
:1007E000BFE7E822F9220A231B23C801B701EAE088
:1007F000CDB7DEB70C946B040E94A003089580E08F
:1008000091E00E94A003089560930001709301019C
:1008100080930201909303010895629FD001739F1A
:10082000F001829FE00DF11D649FE00DF11D929F8C
:10083000F00D839FF00D749FF00D659FF00D9927CB
:10084000729FB00DE11DF91F639FB00DE11DF91FEF
:10085000BD01CF011124089597FB092E05260ED066
:1008600057FD04D04BD00AD0001C38F45095409569
:10087000309521953F4F4F4F5F4F0895F6F7909574
:100880008095709561957F4F8F4F9F4F08952F9260
:100890003F924F925F926F927F928F929F92AF9210
:1008A000BF92CF92DF92EF92FF920F931F93CF935D
:1008B000DF93CDB7DEB7CA1BDB0B0FB6F894DEBFF4
:1008C0000FBECDBF09942A88398848885F846E841A
:1008D0007D848C849B84AA84B984C884DF80EE8064
:1008E000FD800C811B81AA81B981CE0FD11D0FB66D
:1008F000F894DEBF0FBECDBFED010895A1E21A2E20
:10090000AA1BBB1BFD010DC0AA1FBB1FEE1FFF1FB3
:10091000A217B307E407F50720F0A21BB30BE40B03
:10092000F50B661F771F881F991F1A9469F760954A
:100930007095809590959B01AC01BD01CF01089504
:02094000FFCFE7
:0409420001000000B0
:00000001FF
