:100000000C9434000C944F000C944F000C944F004F
:100010000C944F000C944F000C944F000C9463040C
:100020000C944F000C944F000C944F000C945D0303
:100030000C944F000C944F000C944F000C944F0004
:100040000C944F000C944F000C9434030C944F000C
:100050000C944F000C944F000C944F000C944F00E4
:100060000C944F000C944F0011241FBECFEFD4E02E
:10007000DEBFCDBF11E0A0E0B1E0E4ECF2E102C0F0
:1000800005900D92A431B107D9F711E0A4E1B1E0D8
:1000900001C01D92A63CB107E1F70C943B020C9401
:1000A0000000F89480E184B98FEC85B917B88FEF20
:1000B00088B986EE8AB98DE78BB9109280008CE002
:1000C0008093810087E490E090938900809388007A
:1000D00082E080936F0083E190E09093C50080936D
:1000E000C40088E98093C10086E08093C2008091BB
:1000F00064008E7F8093640080917A00876880938B
:100100007A0080917C00806480937C0078940895CC
:10011000982F8091C00085FFFCCF9093C600089572
:100120008CE80E94880080E00E94880084E00E94A1
:1001300088008CE30E94880086E00E94880088E4A2
:100140000E94880086E00E94880084E50E94880062
:1001500086E00E94880080E60E94880086E00E9477
:1001600088008CE80E94880081E00E94880086E078
:100170000E94880085E40E94880082E10E94880035
:1001800088E40E9488008CE00E9488008AE40E9433
:1001900088008CE00E94880088E40E9488008CE03F
:1001A0000E94880085E40E9488008CE00E948800FC
:1001B0008DE40E94880088E10E9488008CE80E94FB
:1001C000880082E00E94880082E00E9488008AE421
:1001D0000E9488008CE00E9488008BE30E948800C7
:1001E00088E10E9488008CE80E94880083E00E94D9
:1001F000880085E00E9488008DE40E94880082E1EA
:100200000E9488008AE40E9488008CE00E94880096
:1002100088E40E9488008CE00E94880085E40E94A7
:1002200088008CE00E94880081E40E94880088E1B8
:100230000E9488000895EF92FF920F931F938C0104
:100240007B0189E80E948800812F992787FD9A9574
:100250000E948800802F0E9488008F2D992787FD9B
:100260009A950E9488008E2D0E9488001F910F9100
:10027000FF90EF90089521E020931E0190932001BC
:1002800080931F0180911E01882309F442C0809150
:100290001D018823B9F7AEE5B1E0E2E9F1E093E3AF
:1002A0008D918193915097FFFBCF80919E0199276B
:1002B000382F222780919F019927282B392B809155
:1002C0001A0190911B01820F931F90931B01809341
:1002D0001A018091A0019927382F22278091A1012E
:1002E0009927282B392B8091180190911901820FA1
:1002F000931F90931901809318018EE80E94880043
:1003000086E00E94880010921C0181E080931D010C
:10031000B9CF089580917C00887F80937C00809184
:100320007C00866080937C0080917A00806480935A
:100330007A0080917A0086FDFCCF809178009091C0
:1003400079009093170180931601089580917C00A5
:10035000876080937C0080917A00806480937A002B
:1003600080917A0086FDFCCF809178009091790091
:10037000909315018093140108959C0181E080936E
:100380001E013093200120931F0180911E018823BC
:10039000E1F70895CF93C82F8C3008F054C081E85E
:1003A0000E9488008091C00080648093C0008C2FE0
:1003B0000E9488008091C00086FFFCCFF894CB306B
:1003C00019F489E090E036C0CA3019F483E190E076
:1003D00031C0C93019F48DE190E02CC0C83019F457
:1003E00087E290E027C0C73019F48BE390E022C089
:1003F000C63019F48FE490E01DC0C53019F487E7CA
:1004000090E018C0C43019F48FEE90E013C0C330F0
:1004100019F48FED91E00EC0C23019F48FEB93E028
:1004200009C0C13019F48FE797E004C0CC2331F440
:100430008FEF9EE09093C5008093C400789484E68B
:1004400090E00E94BD01CF9108951D9913C01D99A0
:100450000DC05F9884EF91E00E94BD015F9A84E631
:1004600090E00E94BD015F981D9BF3CF8CEA9DE058
:100470000E94BD010895CBEDD4E0DEBFCDBF0E9448
:10048000510063E181E00E948B038BB180668BB9E0
:100490000E94250280E80E94880088E00E94CA012C
:1004A0000E94900082E80E94880084E80E948800F0
:1004B00060E070E880E090E00E941B018DE80E94FF
:1004C000880080E00E9488008EEE92E00E943B014E
:1004D0008BE80E9488008AE00E94880080E80E94E1
:1004E00088008FEF0E9488008BB180668BB90E94D4
:1004F0008A010E94600480911601909117019F93D8
:100500008F9380E091E09F938F938E010B5F1F4F3D
:100510001F930F930E94E805C8010E940C0480EA13
:1005200096E8A1E0B0E089839A83AB83BC838DB762
:100530009EB706960FB6F8949EBF0FBE8DBF8981F9
:100540009A81AB81BC810097A105B10561F08981D9
:100550009A81AB81BC810197A109B10989839A83F2
:10056000AB83BC83ECCF0E94A6010E946004809103
:100570001401909115019F938F9386E091E09F93D2
:100580008F931F930F930E94E805C8010E940C04EB
:1005900080EA96E8A1E0B0E089839A83AB83BC83CC
:1005A0008DB79EB706960FB6F8949EBF0FBE8DBF4F
:1005B00089819A81AB81BC810097A105B10561F069
:1005C00089819A81AB81BC810197A109B109898395
:1005D0009A83AB83BC83ECCF209116013091170135
:1005E0008091140190911501281B390B37FF03C02E
:1005F000309521953F4F3595279535952795232B98
:1006000009F072CF8CE80E94880085E00E94880083
:1006100082E00E948800809116019091170153E0BA
:10062000959587955A95E1F70E94880080E40E948D
:100630008800809116019091170143E09595879568
:100640004A95E1F70E94880080E10E9488008DE8C9
:100650000E94880085E00E94880080ED97E00E945B
:10066000BD015D985E9A40CF1F920F920FB60F9218
:1006700011248F939F93EF93FF9378949091C600EA
:1006800080911D01882381F080911C01E82FFF27B4
:10069000E25AFE4F90838F5F80931C0180911C0172
:1006A000843310F010921D01FF91EF919F918F9173
:1006B0000F900FBE0F901F9018951F920F920FB6BC
:1006C0000F9211248F939F93789480911F019091A2
:1006D0002001892B51F080911F01909120010197F9
:1006E0009093200180931F0102C010921E019F91E0
:1006F0008F910F900FBE0F901F9018950E94D405F8
:10070000DC01CB01907096958795C596089581E0A0
:1007100080930E0108951F93162FF89480932A0159
:1007200010922101E0912C01F0912D011082109284
:10073000220181E080930D01109223011092240187
:100740000E94870380912A0141E050E09A0102C093
:10075000220F331F8A95E2F784B1822B84B98091EE
:100760002A019A0102C0220F331F8A95E2F785B150
:10077000822B85B980912A019A0102C0220F331F72
:100780008A95E2F79FE3922780917E0089238093E8
:100790007E0080912A019A0102C0220F331F8A95A0
:1007A000E2F7922F909587B1892387B980912A012A
:1007B00002C0440F551F8A95E2F788B1842B88B98F
:1007C00092E09093B0001093B30011501093B200D8
:1007D00083E08093B1009093700078941F91089506
:1007E00020E030E080912201882311F021E030E008
:1007F000C9010895CF93C82F789401C000000E94CA
:10080000F0038823D9F7F894C0932B0181E08093FB
:1008100022017894CF9108951F93CF93DF93EC0139
:1008200010E0789401C000000E94F0038823D9F7FB
:100830009E012F5F3F4F30932D0120932C01898122
:10084000882331F01F5FF901E10FF11D8081F8CF9E
:10085000F89410932101888180932B0181E080938B
:1008600022017894DF91CF911F91089590912301F7
:1008700080912401981738F08091230190912401F0
:10088000891B992708958091240190912301891B48
:1008900090E3981B892F9927089580912401E82FD0
:1008A000FF27E25DFE4F8F5F80932401E0818091FE
:1008B0002401803310F0109224018E2F992708957F
:1008C00010920E0108951F920F920FB60F921124ED
:1008D0002F933F938F939F93EF93FF9380912601E4
:1008E0008F5F8093260180912601833010F0109253
:1008F000260180910E01882309F45FC03091270101
:100900003323D1F19091260180912801981709F0A5
:1009100056C08091290186958093290186B1992737
:1009200020912A0102C0959587952A95E2F780FFCC
:1009300005C0809129018068809329018091270159
:100940008F5F80932701809127018A30C4F1109234
:10095000270190912301E92FFF27E25DFE4F80914F
:10096000290180839F5F909323018091230180332D
:1009700030F11092230123C086B1992720912A01DA
:1009800002C0959587952A95E2F780FD18C0809161
:1009900026018F5F80932801809128018F5F8093CB
:1009A000280180912801833010F03093280181E0E4
:1009B000809327013093290102C080932701809101
:1009C0002601882309F07DC080912201282F33273A
:1009D00022303105E9F02330310524F4213031058E
:1009E00031F06FC02330310509F43EC06AC08091F8
:1009F0002A0102C0220F331F8A95E2F7922F9095A9
:100A000085B1892385B982E08093220181E029C0E4
:100A100080912B0190910D01892361F080912A0131
:100A200021E030E002C0220F331F8A95E2F785B142
:100A3000822B0DC020912A0181E090E002C0880F36
:100A4000991F2A95E2F7982F909585B1892385B94A
:100A500080910D0187FF02C083E031C080910D01BC
:100A6000880F80930D012DC080912A0121E030E094
:100A700002C0220F331F8A95E2F785B1822B85B918
:100A800091E090930D01809121018823B1F0809134
:100A90002501E0912C01F0912D01E80FF11D890F46
:100AA00080932501808180932B0190932201809176
:100AB000210181508093210104C0809325018093FE
:100AC0002201FF91EF919F918F913F912F910F9074
:100AD0000FBE0F901F901895AF92BF92CF92DF92EA
:100AE000EF92FF920F931F93CF93DF93EC01E88077
:100AF000F9800A811B81C801B7012DE133EF41E084
:100B000050E00E94400959016A01C801B7012DE176
:100B100033EF41E050E00E944009DC01CB01BC0111
:100B2000CD0127EA31E440E050E00E9421097B0139
:100B30008C01C601B50124E13BE040E050E00E9499
:100B40002109DC01CB01E81AF90A0A0B1B0B1E1460
:100B50001F041006110644F08FEF9FEFAFEFBFE7C1
:100B6000E80EF91E0A1F1B1FE882F9820A831B8305
:100B70008FEF9FEFAFEFBFE7E822F9220A231B2395
:100B8000C801B701DF91CF911F910F91FF90EF90B6
:100B9000DF90CF90BF90AF9008950E946C05DC016C
:100BA000CB01BC01CD0108958FE091E00E946C055E
:100BB000DC01CB01BC01CD010895DC01CB018093A8
:100BC0000F0190931001A0931101B09312010895A9
:100BD0000F931F93CF93DF93CDB7DEB72E970FB64A
:100BE000F894DEBF0FBECDBF0D891E892F89388DC9
:100BF00086E08C831A8309838FEF9FE79E838D8322
:100C0000AE01475E5F4FB901CE0101960E94180602
:100C1000EF81F885E00FF11F10822E960FB6F89441
:100C2000DEBF0FBECDBFDF91CF911F910F91089511
:100C30002F923F924F925F926F927F928F929F92EC
:100C4000AF92BF92CF92DF92EF92FF920F931F93DA
:100C5000CF93DF93CDB7DEB762970FB6F894DEBFC0
:100C60000FBECDBFEE24FF2487011C017E876D8758
:100C70002A01CC24DD24FC01D782C682838181FD38
:100C800068C28FEF9FEF78C28D859E8501969E8703
:100C90008D87C0FE4BC28F8580538A30D0F49F85EC
:100CA000903339F4662029F4C3FC03C0E0E0F1E09E
:100CB0008DC08AE0689E602C1124FF856F0E20EDA8
:100CC000620E67FE02C05FE7652EC3FC42C2762C4F
:100CD00040C2C3FE04C0662011F441E0642EEF85DB
:100CE0008E2F992787FD9095883691058CF585364E
:100CF00091050CF06EC08335910509F493C08435DD
:100D00009105CCF48B32910509F449C08C329105E0
:100D10004CF48032910509F446C08332910509F400
:100D20004AC0FEC18D32910509F440C08E32910552
:100D300009F444C0F5C18336910509F450C08436E6
:100D400091050CF08AC08835910509F4BCC0E8C152
:100D50008037910509F4B1C08137910584F48C3650
:100D6000910591F18D3691052CF48936910509F4A0
:100D700074C0D6C18F36910509F49CC0D1C18537A6
:100D8000910509F4A2C08637910524F483379105B3
:100D900071F1C6C18837910509F495C0C1C180E1E0
:100DA00090E0C82AD92AE0E2F0E010C080E890E0A4
:100DB000C82AD92ACEC1E0E4F0E008C088E090E07B
:100DC000C82AD92A6624C5C1E4E0F0E0CE2ADF2A89
:100DD000C0C13FE3E32E7A94F3E6FF873CC1F20102
:100DE00082E090E0480E591EE0807A9434C1F2010E
:100DF00082E090E0480E591EA081B1817D01C3FEC2
:100E000009C0862D992787FD9095BC01CD010E94D0
:100E1000E9081FC0FD0101900020E9F73197EA1BA6
:100E2000E88B18C0F20182E090E0480E591E019054
:100E3000F081E02D7F01C3FE09C0862D992787FD33
:100E40009095BC01CF010E94DE0803C0CF010E9433
:100E5000D508888B9889791AFEC0C2FE0AC0F201B3
:100E600084E090E0480E591E2081318142815381F7
:100E70000CC0F20182E090E0480E591E8081918101
:100E80009C01442737FD4095542F79018A0157FF73
:100E90000CC0E2E0F0E0CE2ADF2A10950095F09435
:100EA000E094E11CF11C011D111D8FEB9FEFC82286
:100EB000D92227C098E0988B08C0E0E4F0E0CE2A61
:100EC000DF2AF8E7FF8720E1288BC2FE0AC0F20183
:100ED00084E090E0480E591E208131814281538187
:100EE0000AC0F20182E090E0480E591E8081918193
:100EF0009C014427552779018A01EFECFFEFCE22B0
:100F0000DF22CE0101969A8B898B9889892E9924AC
:100F1000AA24BB24C801B701A50194010E9440097D
:100F2000DC01CB01E989FA8980838A3024F0FF85CE
:100F30008F0F815201C0805DE989FA898193FA8B14
:100F4000E98BC801B701A50194010E94400979010C
:100F50008A012115310541055105E1F6E98881E055
:100F600090E08C0F9D1FE81AC60182739070892B48
:100F700009F07A94C6FE0DC0872D992787FD9095BC
:100F8000E889E03121F42EEF722E780E02C0782E1F
:100F90007A94C3FE0FC0262D332727FD30958E2D62
:100FA0009927821793072CF087EF9FEFC822D92249
:100FB00001C06E18C3FE02C0761801C07E18C601BB
:100FC00080789170892B51F4872D7A94181634F417
:100FD000B10180E290E00E94F408F6CFC1FE04C0A7
:100FE000B1018DE290E00BC0C4FE04C0B1018BE200
:100FF00090E005C0C5FE05C0B10180E290E00E940E
:10100000F408C6FE10C0B10180E390E00E94F4082D
:101010009889903141F4B101EF858E2F992787FD92
:1010200090950E94F408D0FE0AC0872D7A94181675
:1010300034F4B10180E390E00E94F408F6CFC3FEDF
:101040000AC0862D6A94181634F4B10180E390E04A
:101050000E94F408F6CF90E8B92EBC2051F4872DF9
:101060007A94181634F4B10180E290E00E94F408FA
:10107000F6CFFF85F33641F48E2DB101992787FD18
:1010800090950E94F40840C02F852337B1F48889D9
:101090008150888B8F3FC1F1F70180810894E11C5A
:1010A000F11CB101992787FD90950E94F408988959
:1010B0009150988B9F3F81F727C0EF85E33579F4F6
:1010C000F889F150F88BFF3FF9F0F7018491B101F5
:1010D00099270E94F4080894E11CF11CF1CF6E01DD
:1010E0000894C11CD11C89899A898C159D0561F0D1
:1010F000E989FA898291FA8BE98BB101992787FDF9
:1011000090950E94F408EFCFBB2069F0872D7A9468
:1011100018164CF4B10180E290E00E94F408F6CF7A
:10112000B1010E94F408CC24DD2413C09F859532C0
:1011300041F481E0C82ED12C6624762CEAE0E88BBD
:1011400008C0B101FF858F2F992787FD90950E94D8
:10115000F408F101838183FF04C0ED85FE85F491DD
:1011600003C0ED85FE85F081FF872F85222309F0DE
:101170008BCDF1018681978162960FB6F894DEBF20
:101180000FBECDBFDF91CF911F910F91FF90EF90D8
:10119000DF90CF90BF90AF909F908F907F906F9097
:1011A0005F904F903F902F900895FC010590002094
:1011B000E9F7809590958E0F9F1F0895FC0105908B
:1011C000615070400110D8F7809590958E0F9F1F49
:1011D0000895FC016150704001900110D8F780958E
:1011E00090958E0F9F1F08950F931F93CF93DF93BA
:1011F0008C01EB018B81992781FF1CC082FF0DC000
:101200002E813F818C819D812817390764F4E88104
:10121000F9810193F983E88306C0E885F985802F79
:101220000995892B39F48E819F8101969F838E8346
:10123000C80102C08FEF9FEFDF91CF911F910F91F7
:101240000895629FD001739FF001829FE00DF11D10
:10125000649FE00DF11D929FF00D839FF00D749F30
:10126000F00D659FF00D9927729FB00DE11DF91FDC
:10127000639FB00DE11DF91FBD01CF011124089539
:10128000A1E21A2EAA1BBB1BFD010DC0AA1FBB1F8A
:10129000EE1FFF1FA217B307E407F50720F0A21BFC
:1012A000B30BE40BF50B661F771F881F991F1A9469
:1012B00069F760957095809590959B01AC01BD0193
:0412C000CF010895BD
:1012C400583D25642000593D2564200A0001010190
:0412D4000000000016
:00000001FF
