:100000000C9434000C9451000C9451000C94510049
:100010000C9451000C9451000C9451000C9451001C
:100020000C9451000C9451000C9451000C947B00E2
:100030000C9451000C9451000C9451000C945100FC
:100040000C9451000C9451000C9453000C945100EA
:100050000C9451000C9451000C9451000C945100DC
:100060000C9451000C94510011241FBECFEFD4E02A
:10007000DEBFCDBF11E0A0E0B1E0E2EEF9E002C0EA
:1000800005900D92A430B107D9F711E0A4E0B1E0DA
:1000900001C01D92A537B107E1F70E948A030C94B5
:1000A000F0040C9400001F920F920FB60F921124CF
:1000B0008F939F93EF93FF939091C60080910701D8
:1000C000882381F080910801E82FF0E0E35FFE4F84
:1000D00090838F5F8093080180910801843310F032
:1000E00010920701FF91EF919F918F910F900FBE9A
:1000F0000F901F9018951F920F920FB60F92112418
:100100008F939F938091040190910501892B51F069
:1001100080910401909105010197909305018093CE
:10012000040102C0109206019F918F910F900FBEA3
:100130000F901F901895982F8091C00085FFFCCFDD
:100140009093C600089521E0209306019093050145
:1001500080930401809106018823E1F7089521E04E
:100160002093060190930501809304014FC0809174
:100170000701882309F04AC020E030E0F901E35F7D
:10018000FE4F8081F901EF5BFE4F80832F5F3F4F71
:100190002433310599F74091090150910A0180916A
:1001A0004D0120914E0190E0982F882730E0822B5E
:1001B000932B840F951F90930A018093090140911E
:1001C0000B0150910C0180914F012091500190E062
:1001D000982F882730E0822B932B840F951F9093C4
:1001E0000C0180930B018091C00085FFFCCF8EE84D
:1001F0008093C6008091C00085FFFCCF86E080938D
:10020000C6001092080181E08093070180910601E9
:10021000882309F0ACCF0895F89480E184B98FEC7D
:1002200085B917B88FEF88B986EE8AB98DE78BB993
:10023000109280008CE08093810087E490E090939E
:1002400089008093880082E080936F0083E190E0D2
:100250009093C5008093C40088E98093C10086E034
:100260008093C200789408951D9B1EC008955F98E6
:1002700081E08093060184EF91E0909305018093E3
:100280000401809106018823E1F75F9A81E0809361
:10029000060184E690E0909305018093040180912B
:1002A00006018823E1F75F981D9BE1CF81E08093F1
:1002B00006018CEA9DE090930501809304018091F2
:1002C00006018823E1F70895982F8C3008F062C06A
:1002D0008091C00085FFFCCF81E88093C6008091AB
:1002E000C00080648093C0008091C00085FFFCCF77
:1002F0009093C6008091C00086FFFCCFF8949B309D
:1003000019F489E090E034C09A3019F483E190E068
:100310002FC0993019F48DE190E02AC0983019F47B
:1003200087E290E025C0973019F48BE390E020C07D
:10033000963019F48FE490E01BC0953019F487E7EC
:1003400090E016C0943019F48FEE90E011C0933015
:1003500019F48FED91E00CC0923019F48FEB93E01B
:1003600007C0913019F48FE797E002C08FEF9EE04D
:100370009093C5008093C400789481E08093060137
:1003800084E690E09093050180930401809106013A
:100390008823E1F70895AC018091C00085FFFCCF70
:1003A00089E88093C600252F332727FD3A95809151
:1003B000C00085FFFCCF2093C6008091C00085FF60
:1003C000FCCF4093C600272F332727FD3A95809115
:1003D000C00085FFFCCF2093C6008091C00085FF40
:1003E000FCCF6093C60008958091C00085FFFCCFCC
:1003F0008CE88093C6008091C00085FFFCCF1092EE
:10040000C6008091C00085FFFCCF84E08093C600C9
:100410008091C00085FFFCCF8CE38093C600809163
:10042000C00085FFFCCF86E08093C6008091C000AD
:1004300085FFFCCF88E48093C6008091C00085FFD3
:10044000FCCF86E08093C6008091C00085FFFCCF82
:1004500084E58093C6008091C00085FFFCCF86E0D4
:100460008093C6008091C00085FFFCCF80E680931A
:10047000C6008091C00085FFFCCF86E08093C60057
:100480008091C00085FFFCCF8CE88093C6008091EE
:10049000C00085FFFCCF81E08093C6008091C00042
:1004A00085FFFCCF86E08093C6008091C00085FF69
:1004B000FCCF85E48093C6008091C00085FFFCCF0F
:1004C00082E18093C6008091C00085FFFCCF88E464
:1004D0008093C6008091C00085FFFCCF8CE08093A4
:1004E000C6008091C00085FFFCCF8AE48093C600DF
:1004F0008091C00085FFFCCF8CE08093C600809186
:10050000C00085FFFCCF88E48093C6008091C000C6
:1005100085FFFCCF8CE08093C6008091C00085FFF2
:10052000FCCF85E48093C6008091C00085FFFCCF9E
:100530008CE08093C6008091C00085FFFCCF8DE4E5
:100540008093C6008091C00085FFFCCF88E1809336
:10055000C6008091C00085FFFCCF8CE88093C60068
:100560008091C00085FFFCCF82E08093C60080911F
:10057000C00085FFFCCF82E08093C6008091C00060
:1005800085FFFCCF8AE48093C6008091C00085FF80
:10059000FCCF8CE08093C6008091C00085FFFCCF2B
:1005A0008BE38093C6008091C00085FFFCCF88E17B
:1005B0008093C6008091C00085FFFCCF8CE88093BB
:1005C000C6008091C00085FFFCCF83E08093C60009
:1005D0008091C00085FFFCCF85E08093C6008091AC
:1005E000C00085FFFCCF8DE48093C6008091C000E1
:1005F00085FFFCCF82E18093C6008091C00085FF1B
:10060000FCCF8AE48093C6008091C00085FFFCCFB8
:100610008CE08093C6008091C00085FFFCCF88E409
:100620008093C6008091C00085FFFCCF8CE0809352
:10063000C6008091C00085FFFCCF85E48093C60092
:100640008091C00085FFFCCF8CE08093C600809134
:10065000C00085FFFCCF81E48093C6008091C0007C
:1006600085FFFCCF88E18093C6000895813011F4A6
:100670002C9A0895823009F42C9808952C9B03C07D
:1006800081E090E0089582E090E00895FF920F935A
:100690001F93F82E062F2C9B03C081E090E002C030
:1006A00082E090E0182F081781F0802F0E94360317
:1006B00081E08093060188EC90E09093050180939F
:1006C0000401809106018823E1F78091C00085FF35
:1006D000FCCFF092C600011781F0812F0E943603F3
:1006E00081E08093060188EC90E09093050180936F
:1006F0000401809106018823E1F71F910F91FF907B
:1007000008950E944F04DC01CB0190709695879567
:10071000C59608950E940C018BB180668BB90E942A
:1007200034018091C00085FFFCCF80E88093C60033
:1007300088E00E9464010E94F4018091C00085FF5E
:10074000FCCF82E88093C6008091C00085FFFCCF7B
:1007500084E88093C60060E070E880E090E00E944A
:10076000CB018091C00085FFFCCF8DE88093C6004F
:100770008091C00085FFFCCF1092C6008EEE92E003
:100780000E94AF004C991AC08091C00085FFFCCF39
:100790008DE88093C6008091C00085FFFCCF81E08A
:1007A0008093C6008093060180ED97E09093050149
:1007B00080930401809106018823E1F761E084E6DB
:1007C0000E94460381E0809306018CE291E09093C1
:1007D000050180930401809106018823E1F7D2CFBF
:1007E000A0E0B0E0E6EFF3E00C949F04EC01688138
:1007F00079818A819B81611571058105910549F493
:1008000084E2A82E89EDB82E8BE5C82E87E0D82E7D
:1008100002C05B016C01C601B5012DE133EF41E07F
:1008200050E00E947C0427EA31E440E050E00E945E
:100830005D047B018C01C601B5012DE133EF41E080
:1008400050E00E947C04CA01B90124E13BE040E091
:1008500050E00E945D04E61AF70A080B190B17FF17
:1008600008C08FEF9FEFAFEFBFE7E80EF91E0A1F3A
:100870001B1FE882F9820A831B838FEF9FEFAFEF84
:10088000BFE7E822F9220A231B23C801B701EAE0E7
:10089000CDB7DEB70C94BB040E94F003089580E04E
:1008A00091E00E94F00308956093000170930101AC
:1008B00080930201909303010895629FD001739F7A
:1008C000F001829FE00DF11D649FE00DF11D929FEC
:1008D000F00D839FF00D749FF00D659FF00D99272B
:1008E000729FB00DE11DF91F639FB00DE11DF91F4F
:1008F000BD01CF011124089597FB092E05260ED0C6
:1009000057FD04D04BD00AD0001C38F450954095C8
:10091000309521953F4F4F4F5F4F0895F6F79095D3
:100920008095709561957F4F8F4F9F4F08952F92BF
:100930003F924F925F926F927F928F929F92AF926F
:10094000BF92CF92DF92EF92FF920F931F93CF93BC
:10095000DF93CDB7DEB7CA1BDB0B0FB6F894DEBF53
:100960000FBECDBF09942A88398848885F846E8479
:100970007D848C849B84AA84B984C884DF80EE80C3
:10098000FD800C811B81AA81B981CE0FD11D0FB6CC
:10099000F894DEBF0FBECDBFED010895A1E21A2E7F
:1009A000AA1BBB1BFD010DC0AA1FBB1FEE1FFF1F13
:1009B000A217B307E407F50720F0A21BB30BE40B63
:1009C000F50B661F771F881F991F1A9469F76095AA
:1009D0007095809590959B01AC01BD01CF01089564
:0209E000FFCF47
:0409E2000100000010
:00000001FF
