:100000000C9434000C944F000C944F000C944F004F
:100010000C944F000C944F000C944F000C94BF06AE
:100020000C944F000C944F000C944F000C94A401BE
:100030000C944F000C944F000C944F000C944F0004
:100040000C944F000C944F000C947B010C944F00C7
:100050000C944F000C944F000C944F000C944F00E4
:100060000C944F000C944F0011241FBECFEFD4E02E
:10007000DEBFCDBF11E0A0E0B1E0ECE7F7E102C0E8
:1000800005900D92AE31B107D9F711E0AEE1B1E0C4
:1000900001C01D92AC3CB107E1F70C9443020C94F3
:1000A0000000F89480E184B98FEC85B917B88FEF20
:1000B00088B986EE8AB98DE78BB9109280008CE002
:1000C0008093810087E490E090938900809388007A
:1000D00082E080936F0083E190E09093C50080936D
:1000E000C40088E98093C10086E08093C2007894C0
:1000F0000895982F8091C00085FFFCCF9093C60093
:1001000008958CE80E94790080E00E94790084E0E4
:100110000E9479008CE30E94790086E00E947900B9
:1001200088E40E94790086E00E94790084E50E94BC
:10013000790086E00E94790080E60E94790086E0DE
:100140000E9479008CE80E94790081E00E94790089
:1001500086E00E94790085E40E94790082E10E9495
:10016000790088E40E9479008CE00E9479008AE49A
:100170000E9479008CE00E94790088E40E94790056
:100180008CE00E94790085E40E9479008CE00E9456
:1001900079008DE40E94790088E10E9479008CE862
:1001A0000E94790082E00E94790082E00E9479003A
:1001B0008AE40E9479008CE00E9479008BE30E941F
:1001C000790088E10E9479008CE80E94790083E040
:1001D0000E94790085E00E9479008DE40E947900F8
:1001E00082E10E9479008AE40E9479008CE00E94FA
:1001F000790088E40E9479008CE00E94790085E40F
:100200000E9479008CE00E94790081E40E947900CC
:1002100088E10E9479000895EF92FF920F931F9357
:100220008C017B0189E80E947900812F992787FD45
:100230009A950E947900802F0E9479008F2D99272E
:1002400087FD9A950E9479008E2D0E9479001F915A
:100250000F91FF90EF90089521E020932401909357
:1002600026018093250180912401882309F442C04E
:10027000809123018823B9F7A4E6B1E0E8E9F1E031
:1002800093E38D918193915097FFFBCF8091A401CF
:100290009927382F22278091A5019927282B392BC0
:1002A0008091200190912101820F931F9093210151
:1002B000809320018091A6019927382F22278091D1
:1002C000A7019927282B392B80911E0190911F019E
:1002D000820F931F90931F0180931E018EE80E944E
:1002E000790086E00E9479001092220181E08093DB
:1002F0002301B9CF08951F920F920FB60F921124C8
:100300008F939F93EF93FF9378949091C600809181
:100310002301882381F080912201E82FFF27EC59E7
:10032000FE4F90838F5F809322018091220184335E
:1003300010F010922301FF91EF919F918F910F90F8
:100340000FBE0F901F9018951F920F920FB60F922D
:1003500011248F939F937894809125019091260189
:10036000892B51F08091250190912601019790935E
:1003700026018093250102C0109224019F918F9144
:100380000F900FBE0F901F9018959C0181E08093F5
:100390002401309326012093250180912401882394
:1003A000E1F70895CF93C82F8C3008F054C081E84E
:1003B0000E9479008091C00080648093C0008C2FDF
:1003C0000E9479008091C00086FFFCCFF894CB306A
:1003D00019F489E090E036C0CA3019F483E190E066
:1003E00031C0C93019F48DE190E02CC0C83019F447
:1003F00087E290E027C0C73019F48BE390E022C079
:10040000C63019F48FE490E01DC0C53019F487E7B9
:1004100090E018C0C43019F48FEE90E013C0C330E0
:1004200019F48FED91E00EC0C23019F48FEB93E018
:1004300009C0C13019F48FE797E004C0CC2331F430
:100440008FEF9EE09093C5008093C400789484E67B
:1004500090E00E94C501CF9108951D9913C01D9988
:100460000DC05F9884EF91E00E94C5015F9A84E619
:1004700090E00E94C5015F981D9BF3CF8CEA9DE040
:100480000E94C5010895C9EDD4E0DEBFCDBF33E6BB
:10049000632EEE2481E08DA3CC24DD24982E3E2C07
:1004A000EEA2282E5E2C7E2C4E2C8E2CFE2C0E9432
:1004B000510063E1892D0E94E7058BB180668BB9FD
:1004C0000E942D0280E80E94790088E00E94D201FB
:1004D0000E94810082E80E94790084E80E947900ED
:1004E00060E070E8C6010E940C018DE80E9479006E
:1004F0008E2D0E9479008EEE92E00E942C010E94C7
:10050000BC068091980199279F938F938091BF019A
:1005100099279F938F9320E0A22E21E0B22EBF92C5
:10052000AF928E010B5F1F4F1F930F930E944408E1
:10053000C8010E94680680EA96E8A1E0B0E08983DD
:100540009A83AB83BC83ADB7BEB718960FB6F89449
:10055000BEBF0FBEADBF89819A81AB81BC810097C0
:10056000A105B10561F089819A81AB81BC810197B8
:10057000A109B10989839A83AB83BC83ECCF6394CF
:10058000B3E6B61538F56624862D9DA1992309F4A6
:1005900081E08DA3882379F08BE80E9479008AE0BE
:1005A0000E94790080E80E9479008FEF0E94790014
:1005B0008BB180660EC08BE80E947900862D0E9468
:1005C0007900862D0E947900862D0E9479008BB1DA
:1005D0008F798BB98AE090E00E942C014C998FCFE3
:1005E0008DE80E94790081E00E9479008DEF9AE009
:1005F0000E942C010E94BC068091980199279F932C
:100600008F938091BF0199279F938F93BF92AF9251
:100610001F930F930E944408C8010E94680680EA55
:1006200096E8A1E0B0E089839A83AB83BC83ADB741
:10063000BEB718960FB6F894BEBF0FBEADBF898186
:100640009A81AB81BC810097A105B10509F498C2DC
:1006500089819A81AB81BC810197A109B109898304
:100660009A83AB83BC83EBCF8091980199278C71DF
:100670009070892B09F08BC20E94BC068E010B5F23
:100680001F4F80E1E8E0F1E0D80101900D928A95DA
:10069000E1F7C8010E94680680EA96E8A1E0B0E0B0
:1006A00089839A83AB83BC8389819A81AB81BC8126
:1006B0000097A105B10541F089819A81AB81BC8188
:1006C0000197A109B109ECCF0E94BC068091980165
:1006D00099279F938F938091BF0199279F938F9321
:1006E00090E0A92E91E0B92EBF92AF921F930F9385
:1006F0000E944408C8010E94680680EA96E8A1E0CA
:10070000B0E089839A83AB83BC838DB79EB708968C
:100710000FB6F8949EBF0FBE8DBF89819A81AB81C1
:10072000BC810097A105B10561F089819A81AB81F7
:10073000BC810197A109B10989839A83AB83BC83EA
:10074000ECCF332089F19EA1992399F0809120016B
:1007500090912101909581959F4F0B972CF01EA2AF
:10076000109221011092200160E070E888E39FEF71
:1007700073C1992059F080911E0190911F01C816F4
:10078000D9060CF43EA061E070E064C180911E01C6
:1007900090911F01909581959F4FC816D9060CF432
:1007A000392C6FEF7FEF56C180919801282F3327A6
:1007B000237030702115310589F480919A018823C6
:1007C00069F480919B01882349F480919C018823DE
:1007D00029F480919D01882309F4FAC060E070E853
:1007E00080E090E00E940C0181E0982EB0E5CB2ED5
:1007F000D12CFF2091F580919801992783709070FA
:10080000892B41F480919B01882321F480919C01E4
:10081000882319F0A1E05A2E0AC080919A018823FA
:1008200011F0492C0BC080919D018111792C44203D
:1008300029F480919B01882309F4B5C0772031F415
:1008400080919C01882311F4972CA1C0882009F085
:100850009EC1FAEACF2ED12C6EC0A2E0FA16B1F5F5
:1008600080919801992783709070892B41F4809131
:100870009B01882321F480919C01882319F0E1E0F9
:100880004E2E0CC080919A01882311F0892C06C04D
:1008900080919D01882311F0592C09C0552039F40D
:1008A00080919C01882319F4F52C952C7EC077202B
:1008B00021F47AEAC72ED12C6AC0882009F067C1DA
:1008C00080919B01882309F062C135C0B3E0FB161B
:1008D000A9F5792C80919801992783709070892BC4
:1008E00041F480919B01882321F480919C0188230D
:1008F00019F061E0762E0AC080919A01882311F0E8
:10090000592C0AC080919D018111892C552021F418
:1009100080919B01882399F1442021F45AEAC52E45
:10092000D12C41C0882009F032C180919C018823DC
:1009300009F02DC1982C41E0F42E37C08091980128
:10094000992783709070892B41F480919B018823B3
:1009500021F480919C01882319F031E0832E0AC094
:1009600080919A01882311F0792C04C080919D0117
:100970008111492C552029F42AEAC22ED12CF52CBC
:1009800014C0772039F480919A01882319F493E0F8
:10099000F92E0BC0442009F0FAC080919D018823F4
:1009A00009F0F5C0942C82E0F82EB1E03B2E3EA277
:1009B000109221011092200110921F0110921E012D
:1009C00022248DE80E94790082E00E9479004FC0C5
:1009D000C901222011F481E090E080FF40C08091A5
:1009E000200190912101893C910594F130931F01E0
:1009F00020931E013093210120932001A0E5CA2EEF
:100A0000D12C82E0F81641F4832C532CF32C932C38
:100A1000F1E03F2E232C2BC093E0F91641F4832CF8
:100A2000532CE1E09E2EF32C292C392C20C0A1E080
:100A3000FA16E9F4442021F09F2C73E0F72E03C04E
:100A4000932C62E0F62E7724472C51E0352E0FC010
:100A500060E070E888EC90E00E940C0108C060E063
:100A600070E888EC90E00E940C01432C732C639496
:100A7000B9E0B61508F05BC06624332039F0EE20EB
:100A800019F444E0E42E45C0EA9406C084E0E81678
:100A900011F4E32C03C0E394EE2059F48BE80E9498
:100AA00079008E2D0E94790080E80E9479008FEFF6
:100AB00015C091E0E91629F48BE80E94790082E0E4
:100AC00007C0A2E0EA1681F48BE80E94790088E072
:100AD0000E94790080E00E94790080E00E94790005
:100AE0008BB180668BB923C0B3E0EB1679F48BE849
:100AF0000E94790080E00E94790080E00E947900E5
:100B000080E00E9479005E985D9A11C084E0E8164A
:100B100071F48BE80E94790080E00E94790080E007
:100B20000E94790080E00E9479005D985E9A84E1DD
:100B300090E00E942C010E94BC06809198019927A8
:100B40009F938F938091BF0199279F938F93BF921B
:100B5000AF921F930F930E944408C8010E94680639
:100B600080EA96E8A1E0B0E089839A83AB83BC83F6
:100B7000ADB7BEB718960FB6F894BEBF0FBEADBFE7
:100B80004C9B05C08091BF01882309F46DCD60E0C6
:100B900070E880E090E00E940C0184EF91E00E94F8
:100BA0002C018DE80E94790083E00E94790086E89C
:100BB00099E0A3CC0E943008DC01CB01907096959F
:100BC0008795C596089581E08093190108951F9334
:100BD000162FF8948093300110922701E091320192
:100BE000F091330110821092280181E08093180166
:100BF0001092290110922A010E94E3058091300190
:100C000041E050E09A0102C0220F331F8A95E2F7BB
:100C100084B1822B84B9809130019A0102C0220FE5
:100C2000331F8A95E2F785B1822B85B98091300117
:100C30009A0102C0220F331F8A95E2F79FE39227A1
:100C400080917E00892380937E00809130019A01FB
:100C500002C0220F331F8A95E2F7922F909587B139
:100C6000892387B98091300102C0440F551F8A95AE
:100C7000E2F788B1842B88B992E09093B00010938A
:100C8000B30011501093B20083E08093B1009093B1
:100C9000700078941F91089520E030E08091280141
:100CA000882311F021E030E0C9010895CF93C82FC7
:100CB000789401C000000E944C068823D9F7F8946C
:100CC000C093310181E0809328017894CF910895F9
:100CD0001F93CF93DF93EC0110E0789401C00000E4
:100CE0000E944C068823D9F79E012F5F3F4F309317
:100CF0003301209332018981882331F01F5FF9018C
:100D0000E10FF11D8081F8CFF894109327018881BD
:100D10008093310181E0809328017894DF91CF9115
:100D20001F9108959091290180912A01981738F018
:100D30008091290190912A01891B9927089580911A
:100D40002A0190912901891B90E3981B892F9927EB
:100D5000089580912A01E82FFF27EC5CFE4F8F5FFA
:100D600080932A01E08180912A01803310F0109253
:100D70002A018E2F992708951092190108951F9224
:100D80000F920FB60F9211242F933F938F939F933F
:100D9000EF93FF9380912C018F5F80932C018091C2
:100DA0002C01833010F010922C01809119018823BE
:100DB00009F45FC030912D013323D1F190912C01C2
:100DC00080912E01981709F056C080912F018695C9
:100DD00080932F0186B199272091300102C095950B
:100DE00087952A95E2F780FF05C080912F018068E2
:100DF00080932F0180912D018F5F80932D01809131
:100E00002D018A30C4F110922D0190912901E92F12
:100E1000FF27EC5CFE4F80912F0180839F5F9093B2
:100E2000290180912901803330F11092290123C0DA
:100E300086B199272091300102C0959587952A9512
:100E4000E2F780FD18C080912C018F5F80932E0106
:100E500080912E018F5F80932E0180912E0183302F
:100E600010F030932E0181E080932D0130932F01FB
:100E700002C080932D0180912C01882309F07DC050
:100E800080912801282F332722303105E9F02330C3
:100E9000310524F42130310531F06FC023303105A4
:100EA00009F43EC06AC08091300102C0220F331F96
:100EB0008A95E2F7922F909585B1892385B982E0D2
:100EC0008093280181E029C080913101909118011F
:100ED000892361F08091300121E030E002C0220FCF
:100EE000331F8A95E2F785B1822B0DC02091300126
:100EF00081E090E002C0880F991F2A95E2F7982FB1
:100F0000909585B1892385B98091180187FF02C02A
:100F100083E031C080911801880F809318012DC0A3
:100F20008091300121E030E002C0220F331F8A950A
:100F3000E2F785B1822B85B991E0909318018091F9
:100F400027018823B1F080912B01E0913201F091CB
:100F50003301E80FF11D890F80932B01808180936D
:100F600031019093280180912701815080932701BE
:100F700004C080932B0180932801FF91EF919F91F2
:100F80008F913F912F910F900FBE0F901F9018954A
:100F9000AF92BF92CF92DF92EF92FF920F931F9387
:100FA000CF93DF93EC01E880F9800A811B81C801AF
:100FB000B7012DE133EF41E050E00E949C0B590155
:100FC0006A01C801B7012DE133EF41E050E00E9412
:100FD0009C0BDC01CB01BC01CD0127EA31E440E0F0
:100FE00050E00E947D0B7B018C01C601B50124E11C
:100FF0003BE040E050E00E947D0BDC01CB01E81AB1
:10100000F90A0A0B1B0B1E141F041006110644F0EC
:101010008FEF9FEFAFEFBFE7E80EF91E0A1F1B1F10
:10102000E882F9820A831B838FEF9FEFAFEFBFE760
:10103000E822F9220A231B23C801B701DF91CF91CF
:101040001F910F91FF90EF90DF90CF90BF90AF90E6
:1010500008950E94C807DC01CB01BC01CD010895B1
:101060008AE191E00E94C807DC01CB01BC01CD01FF
:101070000895DC01CB0180931A0190931B01A0938A
:101080001C01B0931D0108950F931F93CF93DF931D
:10109000CDB7DEB72E970FB6F894DEBF0FBECDBF2B
:1010A0000D891E892F89388D86E08C831A830983E8
:1010B0008FEF9FE79E838D83AE01475E5F4FB9013F
:1010C000CE0101960E947408EF81F885E00FF11FB0
:1010D00010822E960FB6F894DEBF0FBECDBFDF9103
:1010E000CF911F910F9108952F923F924F925F924F
:1010F0006F927F928F929F92AF92BF92CF92DF9228
:10110000EF92FF920F931F93CF93DF93CDB7DEB78C
:1011100062970FB6F894DEBF0FBECDBFEE24FF245A
:1011200087011C017E876D872A01CC24DD24FC0108
:10113000D782C682838181FD68C28FEF9FEF78C21C
:101140008D859E8501969E878D87C0FE4BC28F85BB
:1011500080538A30D0F49F85903339F4662029F487
:10116000C3FC03C0E0E0F1E08DC08AE0689E602C23
:101170001124FF856F0E20ED620E67FE02C05FE74F
:10118000652EC3FC42C2762C40C2C3FE04C066205A
:1011900011F441E0642EEF858E2F992787FD9095FD
:1011A000883691058CF5853691050CF06EC0833537
:1011B000910509F493C084359105CCF48B329105E7
:1011C00009F449C08C3291054CF48032910509F440
:1011D00046C08332910509F44AC0FEC18D329105A3
:1011E00009F440C08E32910509F444C0F5C183363C
:1011F000910509F450C0843691050CF08AC08835F9
:10120000910509F4BCC0E8C18037910509F4B1C06B
:101210008137910584F48C36910591F18D369105D5
:101220002CF48936910509F474C0D6C18F36910526
:1012300009F49CC0D1C18537910509F4A2C0863755
:10124000910524F48337910571F1C6C18837910562
:1012500009F495C0C1C180E190E0C82AD92AE0E232
:10126000F0E010C080E890E0C82AD92ACEC1E0E4BE
:10127000F0E008C088E090E0C82AD92A6624C5C1F9
:10128000E4E0F0E0CE2ADF2AC0C13FE3E32E7A9407
:10129000F3E6FF873CC1F20182E090E0480E591E60
:1012A000E0807A9434C1F20182E090E0480E591E49
:1012B000A081B1817D01C3FE09C0862D992787FDDC
:1012C0009095BC01CD010E94450B1FC0FD0101900E
:1012D0000020E9F73197EA1BE88B18C0F20182E0A1
:1012E00090E0480E591E0190F081E02D7F01C3FE71
:1012F00009C0862D992787FD9095BC01CF010E94DA
:101300003A0B03C0CF010E94310B888B9889791A60
:10131000FEC0C2FE0AC0F20184E090E0480E591EF1
:1013200020813181428153810CC0F20182E090E042
:10133000480E591E808191819C01442737FD4095BC
:10134000542F79018A0157FF0CC0E2E0F0E0CE2A69
:10135000DF2A10950095F094E094E11CF11C011D2A
:10136000111D8FEB9FEFC822D92227C098E0988BE0
:1013700008C0E0E4F0E0CE2ADF2AF8E7FF8720E1AA
:10138000288BC2FE0AC0F20184E090E0480E591E8C
:1013900020813181428153810AC0F20182E090E0D4
:1013A000480E591E808191819C014427552779015F
:1013B0008A01EFECFFEFCE22DF22CE0101969A8B5D
:1013C000898B9889892E9924AA24BB24C801B70146
:1013D000A50194010E949C0BDC01CB01E989FA89EB
:1013E00080838A3024F0FF858F0F815201C0805D99
:1013F000E989FA898193FA8BE98BC801B701A501C4
:1014000094010E949C0B79018A0121153105410547
:101410005105E1F6E98881E090E08C0F9D1FE81A04
:10142000C60182739070892B09F07A94C6FE0DC0B4
:10143000872D992787FD9095E889E03121F42EEFDB
:10144000722E780E02C0782E7A94C3FE0FC0262D1D
:10145000332727FD30958E2D9927821793072CF07F
:1014600087EF9FEFC822D92201C06E18C3FE02C0C9
:10147000761801C07E18C60180789170892B51F4CE
:10148000872D7A94181634F4B10180E290E00E941E
:10149000500BF6CFC1FE04C0B1018DE290E00BC04D
:1014A000C4FE04C0B1018BE290E005C0C5FE05C0DA
:1014B000B10180E290E00E94500BC6FE10C0B10165
:1014C00080E390E00E94500B9889903141F4B10183
:1014D000EF858E2F992787FD90950E94500BD0FEA7
:1014E0000AC0872D7A94181634F4B10180E390E095
:1014F0000E94500BF6CFC3FE0AC0862D6A941816C0
:1015000034F4B10180E390E00E94500BF6CF90E8F4
:10151000B92EBC2051F4872D7A94181634F4B101F9
:1015200080E290E00E94500BF6CFFF85F33641F445
:101530008E2DB101992787FD90950E94500B40C0D8
:101540002F852337B1F488898150888B8F3FC1F173
:10155000F70180810894E11CF11CB101992787FDF6
:1015600090950E94500B98899150988B9F3F81F7DE
:1015700027C0EF85E33579F4F889F150F88BFF3F08
:10158000F9F0F7018491B10199270E94500B08945A
:10159000E11CF11CF1CF6E010894C11CD11C89899A
:1015A0009A898C159D0561F0E989FA898291FA8BF7
:1015B000E98BB101992787FD90950E94500BEFCFE1
:1015C000BB2069F0872D7A9418164CF4B10180E2A3
:1015D00090E00E94500BF6CFB1010E94500BCC243A
:1015E000DD2413C09F85953241F481E0C82ED12CB3
:1015F0006624762CEAE0E88B08C0B101FF858F2FC6
:10160000992787FD90950E94500BF101838183FFFC
:1016100004C0ED85FE85F49103C0ED85FE85F08163
:10162000FF872F85222309F08BCDF10186819781D9
:1016300062960FB6F894DEBF0FBECDBFDF91CF919B
:101640001F910F91FF90EF90DF90CF90BF90AF90E0
:101650009F908F907F906F905F904F903F902F90D2
:101660000895FC0105900020E9F7809590958E0F74
:101670009F1F0895FC010590615070400110D8F73C
:10168000809590958E0F9F1F0895FC0161507040CA
:1016900001900110D8F7809590958E0F9F1F0895A7
:1016A0000F931F93CF93DF938C01EB018B819927CD
:1016B00081FF1CC082FF0DC02E813F818C819D81E6
:1016C0002817390764F4E881F9810193F983E883E5
:1016D00006C0E885F985802F0995892B39F48E811C
:1016E0009F8101969F838E83C80102C08FEF9FEF79
:1016F000DF91CF911F910F910895629FD001739F49
:10170000F001829FE00DF11D649FE00DF11D929F9D
:10171000F00D839FF00D749FF00D659FF00D9927DC
:10172000729FB00DE11DF91F639FB00DE11DF91F00
:10173000BD01CF0111240895A1E21A2EAA1BBB1BE3
:10174000FD010DC0AA1FBB1FEE1FFF1FA217B3078D
:10175000E407F50720F0A21BB30BE40BF50B661FA3
:10176000771F881F991F1A9469F760957095809567
:0C17700090959B01AC01BD01CF010895D4
:10177C002564202564200A00427574746F6E205015
:0E178C007265737321200A0001010100000044
:00000001FF
