:100000000C9434000C944F000C944F000C944F004F
:100010000C944F000C944F000C944F000C944F0024
:100020000C944F000C944F000C944F000C94A301BF
:100030000C944F000C944F000C944F000C944F0004
:100040000C944F000C944F000C947B010C944F00C7
:100050000C944F000C944F000C944F000C944F00E4
:100060000C944F000C944F0011241FBECFEFD4E02E
:10007000DEBFCDBF11E0A0E0B1E0E4E0FBE002C0F4
:1000800005900D92A430B107D9F711E0A4E0B1E0DA
:1000900001C01D92A537B107E1F70C9441020C9401
:1000A0000000F89480E184B98FEC85B917B88FEF20
:1000B00088B986EE8AB98DE78BB9109280008CE002
:1000C0008093810087E490E090938900809388007A
:1000D00082E080936F0083E190E09093C50080936D
:1000E000C40088E98093C10086E08093C2007894C0
:1000F0000895982F8091C00085FFFCCF9093C60093
:1001000008958CE80E94790080E00E94790084E0E4
:100110000E9479008CE30E94790086E00E947900B9
:1001200088E40E94790086E00E94790084E50E94BC
:10013000790086E00E94790080E60E94790086E0DE
:100140000E9479008CE80E94790081E00E94790089
:1001500086E00E94790085E40E94790082E10E9495
:10016000790088E40E9479008CE00E9479008AE49A
:100170000E9479008CE00E94790088E40E94790056
:100180008CE00E94790085E40E9479008CE00E9456
:1001900079008DE40E94790088E10E9479008CE862
:1001A0000E94790082E00E94790082E00E9479003A
:1001B0008AE40E9479008CE00E9479008BE30E941F
:1001C000790088E10E9479008CE80E94790083E040
:1001D0000E94790085E00E9479008DE40E947900F8
:1001E00082E10E9479008AE40E9479008CE00E94FA
:1001F000790088E40E9479008CE00E94790085E40F
:100200000E9479008CE00E94790081E40E947900CC
:1002100088E10E9479000895EF92FF920F931F9357
:100220008C017B0189E80E947900812F992787FD45
:100230009A950E947900802F0E9479008F2D99272E
:1002400087FD9A950E9479008E2D0E9479001F915A
:100250000F91FF90EF90089521E020930A01909371
:100260000C0180930B0180910A01882309F442C09C
:10027000809109018823B9F7ADE0B1E0E1E4F1E054
:1002800093E38D918193915097FFFBCF80914D0126
:100290009927382F222780914E019927282B392B17
:1002A0008091060190910701820F931F909307019F
:1002B0008093060180914F019927382F2227809142
:1002C00050019927282B392B809104019091050129
:1002D000820F931F90930501809304018EE80E9482
:1002E000790086E00E9479001092080181E08093F5
:1002F0000901B9CF08951F920F920FB60F921124E2
:100300008F939F93EF93FF939091C6008091090183
:10031000882381F080910801E82FFF27E35FFE4FDB
:1003200090838F5F8093080180910801843310F0DF
:1003300010920901FF91EF919F918F910F900FBE45
:100340000F901F9018951F920F920FB60F921124C5
:100350008F939F9380910B0190910C01892B51F009
:1003600080910B0190910C01019790930C01809367
:100370000B0102C010920A019F918F910F900FBE46
:100380000F901F9018959C0181E080930A01309393
:100390000C0120930B0180910A018823E1F7089555
:1003A000CF93C82F8C3008F054C081E80E947900A8
:1003B0008091C00080648093C0008C2F0E947900DF
:1003C0008091C00086FFFCCFF894CB3019F489E00F
:1003D00090E036C0CA3019F483E190E031C0C930F2
:1003E00019F48DE190E02CC0C83019F487E290E058
:1003F00027C0C73019F48BE390E022C0C63019F44F
:100400008FE490E01DC0C53019F487E790E018C074
:10041000C43019F48FEE90E013C0C33019F48FED9F
:1004200091E00EC0C23019F48FEB93E009C0C130E7
:1004300019F48FE797E004C0CC2331F48FEF9EE0EE
:100440009093C5008093C400789484E690E00E9465
:10045000C301CF9108951D9913C01D990DC05F98D8
:1004600084EF91E00E94C3015F9A84E690E00E94CD
:10047000C3015F981D9BF3CF8CEA9DE00E94C301EE
:100480000895CFEFD4E0DEBFCDBF63E6B62E10E017
:1004900051E0652EEE24FF24D62C812E512E762C91
:1004A000A12EC12E912E012FC12F0E9451008BB180
:1004B00080668BB90E942B0280E80E94790088E058
:1004C0000E94D0010E94810082E80E94790084E8A5
:1004D0000E94790060E070E8C7010E940C018DE87D
:1004E0000E947900812F0E9479008EEE92E00E9496
:1004F0002C01B39483E68B1530F5BB248B2D66203D
:1005000009F481E0682E882379F08BE80E94790055
:100510008AE00E94790080E80E9479008FEF0E94B3
:1005200079008BB180660EC08BE80E9479008B2D1C
:100530000E9479008B2D0E9479008B2D0E947900FA
:100540008BB18F798BB98AE090E00E942C014C9995
:10055000D0CF8DE80E94790081E00E9479008DEF74
:100560009AE0EEC18091410199278C719070892B9E
:1005700009F0EFC1882081F1552099F080910601A2
:1005800090910701909581959F4F0B972CF05524E2
:10059000109207011092060160E070E888E39FEF77
:1005A00068C1DD2059F08091040190910501E816A1
:1005B000F9060CF4852C61E070E059C180910401CA
:1005C00090910501909581959F4FE816F9060CF4DE
:1005D0008D2C6FEF7FEF4BC180914101282F332786
:1005E000237030702115310589F4809143018823EF
:1005F00069F480914401882349F48091450188235E
:1006000029F480914601882309F4F4C060E070E881
:1006100080E090E00E940C0141E0D42E30E5E32E12
:10062000F12CCC2391F58091410199278370907032
:10063000892B41F480914401882321F48091450164
:10064000882319F021E0A22E0AC08091430188235B
:1006500011F09D2C0BC0809146018111CD2C992069
:1006600029F480914401882309F4B0C0CC2031F4EE
:1006700080914501882311F4DC2C9DC0002309F0F2
:1006800068C19AEAE92EF12C6CC0C230B1F58091B4
:100690004101992783709070892B41F48091440126
:1006A000882321F480914501882319F081E0982E58
:1006B0000CC080914301882311F00D2D06C080915C
:1006C0004601882311F0AD2C09C0AA2039F480918D
:1006D0004501882319F4CA2DDA2C79C0CC2021F4E5
:1006E000CAEAEC2EF12C67C0002309F032C18091D8
:1006F0004401882309F02DC134C0C330A1F5CD2CAD
:1007000080914101992783709070892B41F48091E9
:100710004401882321F480914501882319F0B1E038
:10072000CB2E0AC080914301882311F0AD2C0AC062
:100730008091460181110D2DAA2021F48091440160
:10074000882389F1992021F4AAEAEA2EF12C3EC0EF
:10075000002309F0FEC080914501882309F0F9C00B
:10076000D02EC1E034C080914101992783709070F0
:10077000892B41F480914401882321F48091450123
:10078000882311F001E00AC080914301882311F011
:10079000CD2C04C08091460181119D2CAA2029F402
:1007A000FAEAEF2EF12CCA2D12C0CC2031F4809140
:1007B0004301882311F4C3E00AC0992009F0C9C09D
:1007C00080914601882309F0C4C0D92CC2E0E1E041
:1007D0008E2E582C109207011092060110920501DE
:1007E0001092040177248DE80E94790082E00E9433
:1007F00079004AC0C901772011F481E090E080FFC0
:100800003BC08091060190910701893C91056CF1F4
:1008100030930501209304013093070120930601D2
:1008200070E5E72EF12CC23041F4082DA82CC82D1C
:10083000D82C61E0862E782C27C0C33041F4082DD7
:10084000A82C51E0D52EC82D7D2C8D2C1DC0C1307B
:10085000D9F4992019F0DC2EC3E002C0D82CC2E0F4
:10086000CC249C2C41E0842E0FC060E070E888EC22
:1008700090E00E940C0108C060E070E888EC90E015
:100880000E940C01982CC82CB39489E08B1508F0B9
:1008900055C0BB24882031F0112311F414E040C06E
:1008A000115005C0143011F4182D03C01F5F11231F
:1008B00059F48BE80E947900812F0E94790080E82A
:1008C0000E9479008FEF13C0113029F48BE80E9449
:1008D000790082E006C0123081F48BE80E94790032
:1008E00088E00E94790080E00E94790080E00E9408
:1008F00079008BB180668BB921C0133079F48BE815
:100900000E94790080E00E94790080E00E947900D6
:1009100080E00E9479005E985D9A10C0143071F4F6
:100920008BE80E94790080E00E94790080E00E94BC
:10093000790080E00E9479005D985E9A84E190E001
:100940000E942C014C9B05C080916801882309F40A
:1009500009CE60E070E880E090E00E940C0184EF36
:1009600091E00E942C018DE80E94790083E00E94B2
:10097000790086E899E0BBCD0E942D05DC01CB0112
:10098000907096958795C5960895AF92BF92CF9235
:10099000DF92EF92FF920F931F93CF93DF93EC01BF
:1009A000E880F9800A811B81C801B7012DE133EF8E
:1009B00041E050E00E94600559016A01C801B70199
:1009C0002DE133EF41E050E00E946005DC01CB01F6
:1009D000BC01CD0127EA31E440E050E00E9441052E
:1009E0007B018C01C601B50124E13BE040E050E011
:1009F0000E944105DC01CB01E81AF90A0A0B1B0B26
:100A00001E141F041006110644F08FEF9FEFAFEF86
:100A1000BFE7E80EF91E0A1F1B1FE882F9820A834E
:100A20001B838FEF9FEFAFEFBFE7E822F9220A2386
:100A30001B23C801B701DF91CF911F910F91FF9048
:100A4000EF90DF90CF90BF90AF9008950E94C504C3
:100A5000DC01CB01BC01CD01089580E091E00E9452
:100A6000C504DC01CB01BC01CD010895DC01CB0143
:100A70008093000190930101A0930201B0930301C0
:100A80000895629FD001739FF001829FE00DF11DD8
:100A9000649FE00DF11D929FF00D839FF00D749FF8
:100AA000F00D659FF00D9927729FB00DE11DF91FA4
:100AB000639FB00DE11DF91FBD01CF011124089501
:100AC000A1E21A2EAA1BBB1BFD010DC0AA1FBB1F52
:100AD000EE1FFF1FA217B307E407F50720F0A21BC4
:100AE000B30BE40BF50B661F771F881F991F1A9431
:100AF00069F760957095809590959B01AC01BD015B
:040B0000CF01089584
:040B040001000000EC
:00000001FF
