:100000000C9434000C944F000C944F000C944F004F
:100010000C944F000C944F000C944F000C944F0024
:100020000C944F000C944F000C944F000C94A301BF
:100030000C944F000C944F000C944F000C944F0004
:100040000C944F000C944F000C947B010C944F00C7
:100050000C944F000C944F000C944F000C944F00E4
:100060000C944F000C944F0011241FBECFEFD4E02E
:10007000DEBFCDBF11E0A0E0B1E0ECE0FAE002C0ED
:1000800005900D92A430B107D9F711E0A4E0B1E0DA
:1000900001C01D92A537B107E1F70C9441020C9401
:1000A0000000F89480E184B98FEC85B917B88FEF20
:1000B00088B986EE8AB98DE78BB9109280008CE002
:1000C0008093810087E490E090938900809388007A
:1000D00082E080936F0083E190E09093C50080936D
:1000E000C40088E98093C10086E08093C2007894C0
:1000F0000895982F8091C00085FFFCCF9093C60093
:1001000008958CE80E94790080E00E94790084E0E4
:100110000E9479008CE30E94790086E00E947900B9
:1001200088E40E94790086E00E94790084E50E94BC
:10013000790086E00E94790080E60E94790086E0DE
:100140000E9479008CE80E94790081E00E94790089
:1001500086E00E94790085E40E94790082E10E9495
:10016000790088E40E9479008CE00E9479008AE49A
:100170000E9479008CE00E94790088E40E94790056
:100180008CE00E94790085E40E9479008CE00E9456
:1001900079008DE40E94790088E10E9479008CE862
:1001A0000E94790082E00E94790082E00E9479003A
:1001B0008AE40E9479008CE00E9479008BE30E941F
:1001C000790088E10E9479008CE80E94790083E040
:1001D0000E94790085E00E9479008DE40E947900F8
:1001E00082E10E9479008AE40E9479008CE00E94FA
:1001F000790088E40E9479008CE00E94790085E40F
:100200000E9479008CE00E94790081E40E947900CC
:1002100088E10E9479000895EF92FF920F931F9357
:100220008C017B0189E80E947900812F992787FD45
:100230009A950E947900802F0E9479008F2D99272E
:1002400087FD9A950E9479008E2D0E9479001F915A
:100250000F91FF90EF90089521E020930A01909371
:100260000C0180930B0180910A01882309F442C09C
:10027000809109018823B9F7ADE0B1E0E1E4F1E054
:1002800093E38D918193915097FFFBCF80914D0126
:100290009927382F222780914E019927282B392B17
:1002A0008091060190910701820F931F909307019F
:1002B0008093060180914F019927382F2227809142
:1002C00050019927282B392B809104019091050129
:1002D000820F931F90930501809304018EE80E9482
:1002E000790086E00E9479001092080181E08093F5
:1002F0000901B9CF08951F920F920FB60F921124E2
:100300008F939F93EF93FF939091C6008091090183
:10031000882381F080910801E82FFF27E35FFE4FDB
:1003200090838F5F8093080180910801843310F0DF
:1003300010920901FF91EF919F918F910F900FBE45
:100340000F901F9018951F920F920FB60F921124C5
:100350008F939F9380910B0190910C01892B51F009
:1003600080910B0190910C01019790930C01809367
:100370000B0102C010920A019F918F910F900FBE46
:100380000F901F9018959C0181E080930A01309393
:100390000C0120930B0180910A018823E1F7089555
:1003A000CF93C82F8C3008F054C081E80E947900A8
:1003B0008091C00080648093C0008C2F0E947900DF
:1003C0008091C00086FFFCCFF894CB3019F489E00F
:1003D00090E036C0CA3019F483E190E031C0C930F2
:1003E00019F48DE190E02CC0C83019F487E290E058
:1003F00027C0C73019F48BE390E022C0C63019F44F
:100400008FE490E01DC0C53019F487E790E018C074
:10041000C43019F48FEE90E013C0C33019F48FED9F
:1004200091E00EC0C23019F48FEB93E009C0C130E7
:1004300019F48FE797E004C0CC2331F48FEF9EE0EE
:100440009093C5008093C400789484E690E00E9465
:10045000C301CF9108951D9913C01D990DC05F98D8
:1004600084EF91E00E94C3015F9A84E690E00E94CD
:10047000C3015F981D9BF3CF8CEA9DE00E94C301EE
:100480000895CFEFD4E0DEBFCDBF33E6C32E00E04A
:1004900021E0422EEE24FF24D42CA02E302E542C0A
:1004A000B02E602E902E802E702E102F0E945100A4
:1004B0008BB180668BB90E942B0280E80E94790084
:1004C00088E00E94D0010E94810082E80E947900A9
:1004D00084E80E94790060E070E8C7010E940C0186
:1004E0008DE80E947900802F0E9479008EEE92E0C4
:1004F0000E942C01C39483E68C1530F5CC248C2DFE
:10050000442009F481E0482E882379F08BE80E948A
:1005100079008AE00E94790080E80E9479008FEFDC
:100520000E9479008BB180660EC08BE80E94790032
:100530008C2D0E9479008C2D0E9479008C2D0E94B8
:1005400079008BB18F798BB98AE090E00E942C0101
:100550004C99D0CF8DE80E94790081E00E9479000B
:100560008DEF9AE061C1AA2079F1332081F080916A
:1005700006019091070197FF05C0322E10920701E6
:100580001092060160E070E888E39FEFDDC0DD2097
:1005900059F08091040190910501E816F9060CF4D8
:1005A000A32C61E070E00DC08091040190910501E1
:1005B000909581959F4FE816F9060CF4AD2C6FEFDE
:1005C0007FEF88EC90E0C0C080914101282F332755
:1005D000237030702115310509F45BC091E0D92EEC
:1005E00081E5E82EF12C112381F46D2C882009F48B
:1005F00040C0992011F4DA2C36C0772009F02DC1C3
:1006000014EBE12EF12C1D2D35C0123089F48D2C08
:10061000662019F41A2DDA2C2DC0992021F4C4EB90
:10062000EC2EF12C20C0772009F017C11D2D22C01F
:10063000133079F49D2C662091F0882021F4B4EBDE
:10064000EB2EF12C16C0772009F007C1DA2C192DFA
:1006500011C07D2C662029F4A4EBEA2EF12C1A2D72
:1006600009C0992011F413E005C0882009F0F5C0F5
:10067000DA2C12E0F1E0AF2E3A2C10920501109224
:10068000040155248DE80E94790082E00E947900DF
:100690006FC0C901552011F481E090E0EC01C170F8
:1006A000D07080FF54C08091060190910701893C71
:1006B00091050CF445C0309305012093040130935B
:1006C000070120930601E1E5EE2EF12C112369F4D8
:1006D0008A2C9A2C1B1424F471E0D72E12E020C02F
:1006E000B7FE46C0DA2C13E028C0123061F47A2C31
:1006F0006A2CBA941B14E4F11A2DDA2CBB20E9F40D
:1007000061E0562E1AC0133069F47A2C6A2CB39427
:10071000B7FC2EC051E0D52E1A2DBB2009F45D2C5C
:10072000AD2C26C0113021F5882019F0D12E13E010
:1007300002C0DA2C12E09924892C41E0A42E18C0C2
:1007400060E070E88CE291E00E940C0111C060E072
:1007500070E88CE291E00E940C018091060190917A
:100760000701893C910524F0D0930701C09306014D
:10077000C39489E08C1508F055C0CC24AA2031F030
:10078000002311F404E040C0015005C0043011F40E
:100790000A2D03C00F5F002359F48BE80E947900F3
:1007A000802F0E94790080E80E9479008FEF13C0AB
:1007B000013029F48BE80E94790082E006C0023003
:1007C00081F48BE80E94790088E00E94790080E043
:1007D0000E94790080E00E9479008BB180668BB91D
:1007E00021C0033079F48BE80E94790080E00E94F8
:1007F000790080E00E94790080E00E9479005E9894
:100800005D9A10C0043071F48BE80E94790080E09A
:100810000E94790080E00E94790080E00E947900C7
:100820005D985E9A84E190E00E942C014C9B15C07B
:1008300080914301882389F480914401882369F4DD
:1008400080914501882349F480914601882329F449
:1008500020916801222309F486CE60E070E880E0F0
:1008600090E00E940C0184EF91E00E942C018DE841
:100870000E94790083E00E94790086E899E038CEF2
:100880000E94B104DC01CB01907096958795C596C6
:100890000895AF92BF92CF92DF92EF92FF920F93A3
:1008A0001F93CF93DF93EC01E880F9800A811B81CD
:1008B000C801B7012DE133EF41E050E00E94E404AC
:1008C00059016A01C801B7012DE133EF41E050E061
:1008D0000E94E404DC01CB01BC01CD0127EA31E434
:1008E00040E050E00E94C5047B018C01C601B501C7
:1008F00024E13BE040E050E00E94C504DC01CB0174
:10090000E81AF90A0A0B1B0B1E141F041006110625
:1009100044F08FEF9FEFAFEFBFE7E80EF91E0A1F1D
:100920001B1FE882F9820A831B838FEF9FEFAFEFD3
:10093000BFE7E822F9220A231B23C801B701DF9190
:10094000CF911F910F91FF90EF90DF90CF90BF90CC
:10095000AF9008950E944904DC01CB01BC01CD0198
:10096000089580E091E00E944904DC01CB01BC01C4
:10097000CD010895DC01CB0180930001909301012A
:10098000A0930201B09303010895629FD001739F69
:10099000F001829FE00DF11D649FE00DF11D929F1B
:1009A000F00D839FF00D749FF00D659FF00D99275A
:1009B000729FB00DE11DF91F639FB00DE11DF91F7E
:1009C000BD01CF0111240895A1E21A2EAA1BBB1B61
:1009D000FD010DC0AA1FBB1FEE1FFF1FA217B3070B
:1009E000E407F50720F0A21BB30BE40BF50B661F21
:1009F000771F881F991F1A9469F7609570958095E5
:0C0A000090959B01AC01BD01CF01089551
:040A0C0001000000E5
:00000001FF
