:100000000C9434000C944F000C944F000C944F004F
:100010000C944F000C944F000C944F000C944F0024
:100020000C944F000C944F000C944F000C94A301BF
:100030000C944F000C944F000C944F000C944F0004
:100040000C944F000C944F000C947B010C944F00C7
:100050000C944F000C944F000C944F000C944F00E4
:100060000C944F000C944F0011241FBECFEFD4E02E
:10007000DEBFCDBF11E0A0E0B1E0EAEFF8E002C0E2
:1000800005900D92A430B107D9F711E0A4E0B1E0DA
:1000900001C01D92A537B107E1F70C9441020C9401
:1000A0000000F89480E184B98FEC85B917B88FEF20
:1000B00088B986EE8AB98DE78BB9109280008CE002
:1000C0008093810087E490E090938900809388007A
:1000D00082E080936F0083E190E09093C50080936D
:1000E000C40088E98093C10086E08093C2007894C0
:1000F0000895982F8091C00085FFFCCF9093C60093
:1001000008958CE80E94790080E00E94790084E0E4
:100110000E9479008CE30E94790086E00E947900B9
:1001200088E40E94790086E00E94790084E50E94BC
:10013000790086E00E94790080E60E94790086E0DE
:100140000E9479008CE80E94790081E00E94790089
:1001500086E00E94790085E40E94790082E10E9495
:10016000790088E40E9479008CE00E9479008AE49A
:100170000E9479008CE00E94790088E40E94790056
:100180008CE00E94790085E40E9479008CE00E9456
:1001900079008DE40E94790088E10E9479008CE862
:1001A0000E94790082E00E94790082E00E9479003A
:1001B0008AE40E9479008CE00E9479008BE30E941F
:1001C000790088E10E9479008CE80E94790083E040
:1001D0000E94790085E00E9479008DE40E947900F8
:1001E00082E10E9479008AE40E9479008CE00E94FA
:1001F000790088E40E9479008CE00E94790085E40F
:100200000E9479008CE00E94790081E40E947900CC
:1002100088E10E9479000895EF92FF920F931F9357
:100220008C017B0189E80E947900812F992787FD45
:100230009A950E947900802F0E9479008F2D99272E
:1002400087FD9A950E9479008E2D0E9479001F915A
:100250000F91FF90EF90089521E020930A01909371
:100260000C0180930B0180910A01882309F442C09C
:10027000809109018823B9F7ADE0B1E0E1E4F1E054
:1002800093E38D918193915097FFFBCF80914D0126
:100290009927382F222780914E019927282B392B17
:1002A0008091060190910701820F931F909307019F
:1002B0008093060180914F019927382F2227809142
:1002C00050019927282B392B809104019091050129
:1002D000820F931F90930501809304018EE80E9482
:1002E000790086E00E9479001092080181E08093F5
:1002F0000901B9CF08951F920F920FB60F921124E2
:100300008F939F93EF93FF939091C6008091090183
:10031000882381F080910801E82FFF27E35FFE4FDB
:1003200090838F5F8093080180910801843310F0DF
:1003300010920901FF91EF919F918F910F900FBE45
:100340000F901F9018951F920F920FB60F921124C5
:100350008F939F9380910B0190910C01892B51F009
:1003600080910B0190910C01019790930C01809367
:100370000B0102C010920A019F918F910F900FBE46
:100380000F901F9018959C0181E080930A01309393
:100390000C0120930B0180910A018823E1F7089555
:1003A000CF93C82F8C3008F054C081E80E947900A8
:1003B0008091C00080648093C0008C2F0E947900DF
:1003C0008091C00086FFFCCFF894CB3019F489E00F
:1003D00090E036C0CA3019F483E190E031C0C930F2
:1003E00019F48DE190E02CC0C83019F487E290E058
:1003F00027C0C73019F48BE390E022C0C63019F44F
:100400008FE490E01DC0C53019F487E790E018C074
:10041000C43019F48FEE90E013C0C33019F48FED9F
:1004200091E00EC0C23019F48FEB93E009C0C130E7
:1004300019F48FE797E004C0CC2331F48FEF9EE0EE
:100440009093C5008093C400789484E690E00E9465
:10045000C301CF9108951D9913C01D990DC05F98D8
:1004600084EF91E00E94C3015F9A84E690E00E94CD
:10047000C3015F981D9BF3CF8CEA9DE00E94C301EE
:100480000895CFEFD4E0DEBFCDBF13E6C0E0E1E0DA
:10049000DE2EEE24FF240D2DCC2EBC2EAD2C0E9482
:1004A00051008BB180668BB90E942B0280E80E94BC
:1004B000790088E00E94D0010E94810082E80E94B9
:1004C000790084E80E94790060E070E8C7010E942A
:1004D0000C018DE80E9479008C2F0E9479008EEE2D
:1004E00092E00E942C011F5F143630F110E0812F42
:1004F000DD2009F481E0D82E882379F08BE80E9472
:1005000079008AE00E94790080E80E9479008FEFEC
:100510000E9479008BB180660EC08BE80E94790042
:10052000812F0E947900812F0E947900812F0E94E3
:1005300079008BB18F798BB98AE090E00E942C0111
:100540004C99D1CF8DE80E94790081E00E9479001A
:100550008DEF9AE0E0C0CC2091F1BB2099F0809122
:10056000060190910701909581959F4F06972CF079
:10057000B22E109207011092060160E070E888E345
:100580009FEF6CC0002359F0809104019091050108
:10059000E816F9060CF4CB2C61E070E00DC08091F8
:1005A000040190910501909581959F4FE816F906F9
:1005B0000CF4CB2C6FEF7FEF88EC90E04FC080E025
:1005C00090E0AA2011F481E090E081709070892B76
:1005D000E9F080910601909107014597A4F08C2DD8
:1005E000002309F481E0082F71E0A72E1092070183
:1005F000109206011092050110920401CA2C6AE5BE
:10060000E62EF12C2DC060E070E8D6CF809141013C
:10061000992783709070892BE9F08091410181FFC7
:1006200002C00C2D01C001E051E0C52EBC2C10927F
:1006300007011092060110920501109204014AE58B
:10064000E42EF12CAA248DE80E94790082E00E9419
:10065000790006C060E070E88CE291E00E940C0135
:100660001F5F1A3008F455C010E0CC2031F0CC23C5
:1006700011F4C4E040C0C15005C0C43011F4CC2D09
:1006800003C0CF5FCC2359F48BE80E9479008C2FF4
:100690000E94790080E80E9479008FEF13C0C1307A
:1006A00029F48BE80E94790082E006C0C23081F410
:1006B0008BE80E94790088E00E94790080E00E9427
:1006C000790080E00E9479008BB180668BB921C0EF
:1006D000C33079F48BE80E94790080E00E947900B1
:1006E00080E00E94790080E00E9479005E985D9A27
:1006F00010C0C43071F48BE80E94790080E00E9441
:10070000790080E00E94790080E00E9479005D9885
:100710005E9A84E190E00E942C014C9B15C0809170
:100720004301882389F480914401882369F48091EE
:100730004501882349F480914601882329F42091BA
:100740006801222309F407CF60E070E880E090E0C0
:100750000E940C0184EF91E00E942C018DE80E9420
:10076000790083E00E94790086E899E0BACE0E9481
:100770002804DC01CB01907096958795C596089565
:10078000AF92BF92CF92DF92EF92FF920F931F939F
:10079000CF93DF93EC01E880F9800A811B81C801C7
:1007A000B7012DE133EF41E050E00E945B045901B5
:1007B0006A01C801B7012DE133EF41E050E00E942A
:1007C0005B04DC01CB01BC01CD0127EA31E440E050
:1007D00050E00E943C047B018C01C601B50124E17C
:1007E0003BE040E050E00E943C04DC01CB01E81A11
:1007F000F90A0A0B1B0B1E141F041006110644F005
:100800008FEF9FEFAFEFBFE7E80EF91E0A1F1B1F28
:10081000E882F9820A831B838FEF9FEFAFEFBFE778
:10082000E822F9220A231B23C801B701DF91CF91E7
:100830001F910F91FF90EF90DF90CF90BF90AF90FE
:1008400008950E94C003DC01CB01BC01CD010895D5
:1008500080E091E00E94C003DC01CB01BC01CD012E
:100860000895DC01CB018093000190930101A093D6
:100870000201B09303010895629FD001739FF001BC
:10088000829FE00DF11D649FE00DF11D929FF00D20
:10089000839FF00D749FF00D659FF00D9927729F57
:1008A000B00DE11DF91F639FB00DE11DF91FBD01E2
:1008B000CF0111240895A1E21A2EAA1BBB1BFD0132
:1008C0000DC0AA1FBB1FEE1FFF1FA217B307E4072F
:1008D000F50720F0A21BB30BE40BF50B661F771F87
:1008E000881F991F1A9469F7609570958095909567
:0A08F0009B01AC01BD01CF0108958A
:0408FA0001000000F9
:00000001FF
